:020000040800F2
:1000000068F30020710200086D500008D74C00080A
:1000100069500008D523000891670008000000001F
:10002000000000000000000000000000B102000815
:1000300053260008000000004B0300085B03000883
:100040008B0200088B0200088B0200088B0200085C
:100050008B0200088B0200088B0200088B0200084C
:100060008B0200088B0200088B0200088B0200083C
:100070008B0200088B0200088B0200088B0200082C
:100080008B0200088B0200088B0200088B0200081C
:100090008B0200088B0200088B0200088B0200080C
:1000A0008B0200088B0200088B0200088B020008FC
:1000B0008B0200088B0200088B0200088B020008EC
:1000C0008B0200088B0200088B0200088B020008DC
:1000D0008B0200088B0200088B0200088B020008CC
:1000E0008B0200088B0200088B0200088B020008BC
:1000F0008B020008516600088B0200088B02000882
:100100008B020008ED5400088B0200088B020008E7
:100110008B0200088B0200088B0200088B0200088B
:100120008B0200088B0200088B020008552500088E
:100130008B020008552600088B0200088B0200087D
:100140008B0200088B0200088B0200088B0200085B
:100150008B020008652500088B0200088B0200084E
:100160008B0200088B0200088B0200088B0200083B
:100170008B0200088B0200088B02000800000000C0
:100180008B0200088B02000800F002F800F05CF817
:100190000AA090E8000C82448344AAF10107DA45E2
:1001A00001D100F051F8AFF2090EBAE80F0013F0D8
:1001B000010F18BFFB1A43F00103184750A20000BB
:1001C00070A200000A444FF0000C10F8013B13F03D
:1001D000070408BF10F8014B1D1108BF10F8015BA0
:1001E000641E05D010F8016B641E01F8016BF9D193
:1001F00013F0080F1EBF10F8014BAD1C0C1B09D1EA
:100200006D1E58BF01F801CBFAD505E014F8016B5B
:1002100001F8016B6D1EF9D59142D6D370470000ED
:100220000023002400250026103A28BF78C1FBD8FF
:10023000520728BF30C148BF0B6070471FB509F097
:1002400057FE1FBD10B510BD00F000FA114603B4F3
:1002500006F0E7FA03BCFFF7F1FF07F0FFF800F044
:100260001AFA03B4FFF7EEFF03BC00F01DFA00001A
:100270000948804709480047FEE7FEE7FEE7FEE73A
:10028000FEE7FEE7FEE7FEE7FEE7FEE70448054976
:10029000054A064B704700003D66000889010008CA
:1002A00068ED002068F3002068EF002068EF002070
:1002B0001EF0040F0CBFEFF30880EFF30980816993
:1002C00011F8021C002932D101B590E80F10E04767
:1002D000BDE800508CE80300244B93E806009142EF
:1002E00008BF70471A6041B91EF0100F10D1204BA3
:1002F000186820F0010018600AE02CE9F00F1EF0E9
:10030000100F08BF2CED108A81F822E0C1F838C028
:10031000906B92F8221061F0FF0E1EF0100F08BFD4
:10032000B0EC108AB0E8F00F80F309887047114AEA
:1003300013689942FAD801B552F821C00FC8E047B6
:10034000BDE80050CCF80000704701B500F0ACFDEE
:10035000BDE80140EFF3098CBEE701B501F020F8DC
:10036000BDE80140EFF3098CB6E700BFAC86002082
:1003700034EF00E0609F000853EA020C00F069804F
:100380002DE9F04B4FF00006002B1FBFB3FA83F5A9
:1003900003FA05F424FA05F65E4012BF1643B2FADA
:1003A00082F502FA05F4C5F120051EBF22FA05FC0C
:1003B00044EA0C04203556EA044C4FEA144418BFB2
:1003C000641C4FF000084FF00009904271EB030CE1
:1003D00039D3002919BFB1FA81F701FA07F6B0FA4B
:1003E00080F700FA07F6C7F120071EBF20FA07FCC6
:1003F00046EA0C062037B6FBF4FCA7EB0507103FD6
:1004000007F01F0BCBF120060CFA0BFB2CFA06F6BB
:1004100044BFB3460026202FA4BF5E464FF0000B1A
:100420005BEA060C08BF4FF0010B19EB0B09ABFBA5
:10043000027C48EB0608C01B06FB02CC0BFB03CC7E
:1004400071EB0C01C1E70B46024641464846BDE848
:10045000F08B13B54FF000004FF00001AFF30080B8
:10046000BDE81C40704740EA010310B59B070FD15F
:10047000042A0DD310C808C9121F9C42F8D020BA14
:1004800019BA884201D9012010BD4FF0FF3010BDCC
:100490001AB1D30703D0521C07E0002010BD10F89A
:1004A000013B11F8014B1B1B07D110F8013B11F860
:1004B000014B1B1B01D1921EF1D1184610BD032A1E
:1004C00040F2308010F0030C00F0158011F8013B71
:1004D000BCF1020F624498BF11F801CB00F8013B58
:1004E00038BF11F8013BA2F1040298BF00F801CB1C
:1004F00038BF00F8013B11F0030300F02580083AF3
:10050000C0F0088051F8043B083A51F804CBA0E849
:100510000810F5E7121D5CBF51F8043B40F8043B9E
:10052000AFF30080D20724BF11F8013B11F801CBD3
:1005300048BF11F8012B24BF00F8013B00F801CBA4
:1005400048BF00F8012B704710B5203AC0F00B806F
:10055000B1E81850203AA0E81850B1E81850A0E8C7
:100560001850BFF4F5AF5FEA027C24BFB1E8185021
:10057000A0E8185044BF18C918C0BDE810405FEA91
:10058000827C24BF51F8043B40F8043B08BF70470D
:10059000D20728BF31F8023B48BF11F8012B28BF12
:1005A00020F8023B48BF00F8012B70474FF00002D3
:1005B0000429C0F0128010F0030C00F01B80CCF175
:1005C000040CBCF1020F18BF00F8012BA8BF20F8E3
:1005D000022BA1EB0C0100F00DB85FEAC17C24BF37
:1005E00000F8012B00F8012B48BF00F8012B7047E1
:1005F0004FF0000200B5134694469646203922BFBC
:10060000A0E80C50A0E80C50B1F12001BFF4F7AF06
:10061000090728BFA0E80C5048BF0CC05DF804EBE8
:10062000890028BF40F8042B08BF704748BF20F856
:10063000022B11F0804F18BF00F8012B7047704754
:1006400070477047004870473CE800207546FFF748
:10065000F9FFAE4605006946534620F0070085467F
:1006600018B020B5FFF712FEBDE820404FF000069D
:100670004FF000074FF000084FF0000B21F007018A
:10068000AC46ACE8C009ACE8C009ACE8C009ACE8CD
:10069000C0098D46704710B50446AFF30080204670
:1006A000BDE81040FFF7DDBD01491820ABBEFEE7F5
:1006B00026000200704710B500F1280151E8002F14
:1006C00012B9BFF32F8F04E0531E41E8003404B188
:1006D000F4E772B12C300121006850B1821CD2E8DD
:1006E0004F3FC2E8441F04B1F9E71A0602D00830B0
:1006F000F2E7002010BD70B5024652F8305F4DB1F0
:10070000CC7800235DB12E46ED78A5420DD27568F8
:100710003346F7E70023C162C1E901330DE000244D
:10072000C1E9014300F12C0403E0C1E9016306F1D2
:1007300008042160002B18BF1A1D1160283050E8F2
:10074000001F4A1C40E8002303B1F8E770BDD1E95F
:10075000012312B193608B6800E0C362191D002B66
:1007600008BF00F130010A607047000001480068CE
:10077000704700BF10E000E007480178012905D16B
:1007800006494FF080620A60002101700448016848
:1007900041F001010160704764ED002004ED00E0CC
:1007A00010E000E04FF0FF307047000040B10B490F
:1007B0000968B1FBF0F0411E0020B0EB116F02D0D0
:1007C0004FF0FF307047064AFF231370054A062397
:1007D000136051600449087090607047688600207B
:1007E00023ED00E010E000E064ED00202168D4E992
:1007F0000223204600F08DBA6FF0050070470021FB
:1008000000220646002700F0B3BD6FF005007047D8
:100810006FF0030010BD4DF808ED204600F018FD04
:1008200020465DF808EB00F037BC04460078F1285C
:100830007047B0B500F10C01C289D1E85F3F9A4220
:1008400002D8BFF32F8F04E05C1CC1E8554F05B1FF
:10085000F3E7C28999B20020914238BF0120B0BDB0
:1008600010B5930712D400F12803D00715D153E82F
:10087000000F084203D1BFF32F8F002005E020EACC
:10088000010243E8002404B1F1E710BD806AD207F9
:1008900000EA010312D1A3B912E053E8000F00EA05
:1008A00001028A4203D0BFF32F8F002005E020EA27
:1008B000010243E8002404B1EFE710BD8B4200D0F1
:1008C000002010BDB0B5104A0023443215462C68F4
:1008D0003CB12569A94209D3491B04F10C05234603
:1008E000F5E700240161C0E9023406E00161C0E9D6
:1008F0000234A0602569691A2161002B18BF03F139
:100900000C021060B0BD00BF98860020C16829B1FC
:10091000826803698A600A691A440A618068044A25
:1009200000F10C03002808BF02F14403196070476E
:1009300098860020EFF3058129B9EFF3108111B9F2
:10094000EFF3118111B16FF005007047DFF804C0BB
:1009500000DF704711170008EFF3058048B9EFF387
:10096000108030B9EFF3118018B9EFF31480C0078D
:1009700002D10448007A7047DFF804C000DF7047F6
:100980002917000898860020EFF3058028B9EFF3B7
:10099000108010B9EFF3118010B103484068704720
:1009A000DFF808C000DF704754A3000835170008BF
:1009B00080B500F0F9F8EFF3058028B9EFF3108067
:1009C00010B9EFF3118010B16FF0050080BDDFF8B2
:1009D00008C000DF80BD00BF41170008EFF30580AD
:1009E00028B9EFF3108010B9EFF3118008B1FFF7C9
:1009F0000CBFDFF808C000DF704700BF41180008D7
:100A0000F8B50546EFF3058014460E4628B9EFF316
:100A1000108010B9EFF31180F0B1D5B12878FA2821
:100A200017D16FF00300EEB1E3B92846FFF743FE9C
:100A3000C8B16A6A074600F10C013046FFF73FFD76
:100A40000CB1F87820703846FD6000F073FA002091
:100A5000F8BD6FF00300F8BD2846DFF810C031463E
:100A6000224600DFF8BD6FF00200F8BDC91800088B
:100A7000EFF305832BB9EFF3108313B9EFF3118371
:100A80000BB100207047DFF808C000DF704700BFDF
:100A9000A11900082DE9F0410646EFF305809046C4
:100AA0000D4628B9EFF3108010B9EFF3118018B399
:100AB000EEB13078FA281AD16FF00307CDB1C3B97F
:100AC00006F10C0000F0E3F8F0B1726A04460C3055
:100AD0002946FFF7F4FCF9200027C4E9015684F801
:100AE000038020702046A77000F024FA01E06FF028
:100AF00003073846BDE8F0813046DFF814C02946C8
:100B0000424600DFBDE8F0816FF00207F1E700BF69
:100B1000B91A0008EFF305822AB9EFF3108212B96F
:100B2000EFF3118212B16FF005007047DFF804C0D7
:100B300000DF70476D1B0008EFF3058129B9EFF363
:100B4000108111B9EFF3118111B16FF005007047F9
:100B5000DFF804C000DF7047FD1B0008EFF30581DC
:100B600029B9EFF3108111B9EFF3118109B1002018
:100B70007047DFF808C000DF704700BFAD1C0008F9
:100B8000EFF3058129B9EFF3108111B9EFF311816A
:100B900011B16FF005007047DFF804C000DF704747
:100BA000151D000808F069BE7047F0B5A8B1002314
:100BB00079B3032A2DD803460F3153F8085F21F08B
:100BC00007012C46EE1A5D6825F00307F61B8E42DE
:100BD00005D225682346002DF3D1002319E0D0E982
:100BE00000760E444660384450F8047CB74202D286
:100BF000083846605D6845B125F003001143C450D4
:100C0000184418600346416002E041EA020058605F
:100C100008331846F0BDB0B560B159B100F1080411
:100C2000A1F108020023944206D0254624682B46F1
:100C3000002CF8D10020B0BD51F8045C446825F0C8
:100C40000305641B446013B11068186002E00020C3
:100C500041F8040C0120B0BD18B10246084340071A
:100C600001D000207047002018290FD310B58B1831
:100C7000A3F10804946043F8080C10249368C2E9B7
:100C800000145C60D0600120BDE81040704710B5D2
:100C9000002817D0014600F1140252E8000F10B9E5
:100CA000BFF32F8F04E0036842E8003404B1F4E797
:100CB00040B1043151E8002F531C41E8003404B125
:100CC000F8E710BD002010BDB0B500281ED0C268E6
:100CD0008A421BD802698A4218D900F114021368AB
:100CE0000B60BFF35F8F52E8003F0C689C42F6D167
:100CF00042E8001505B1F2E7043050E8001F4A1E33
:100D000040E8002303B1F8E70020B0BD6FF0030016
:100D1000B0BDB0B598B191B18AB1044600209BB185
:100D2000C4E9001004F1080002FB013563612CC026
:100D3000481E30B19918013819600B46F9E70020B8
:100D4000B0BD002018600120B0BDF8B50446807821
:100D500048B3E56821462846FFF7F9FC002005F175
:100D60000C06214620703046FFF7AEFFA868C8B1D8
:100D70003046FFF78CFFA8B10446284600F049FA38
:100D8000FFF73DFD304600F0A5FA81686A6A064625
:100D900004F10C00FFF793FBF920A7702070F068B6
:100DA000E07021E0F8BDA568A868E8B14078832824
:100DB0001AD1284600F02DFAFFF721FD304600F049
:100DC00089FA064680686A6A04F10C01FFF777FB2E
:100DD000F06808B1E1780170277005F10C00214638
:100DE000BDE8F840FFF770BF28462146BDE8F8404F
:100DF000FFF781BC80B507480821D0E91A2000F030
:100E0000CFFD0549C8640021002808BF4FF0FF311D
:100E1000084680BD54A30008988600202DE9F041C3
:100E2000044600274FF00108D4B125466469E878EC
:100E30000007F9D5A8682F760028F5D0284600F0DD
:100E4000E8F900210022064600F092FAF06AC5E9AE
:100E50000367686100B1056185F81880F562E3E712
:100E6000BDE8F081B0B5C278920715D5C068C36AF5
:100E700090F821209C688C4208BF8C682CB194F9B2
:100E8000204055B2AC42C8BFE2B25B69002BF1D141
:100E900090F82010914200D1B0BD80F82020BDE82C
:100EA000B04000F0E5B9000070B5214C04F15605E2
:100EB00004F15A06B4F85400D5E85F1F11B9BFF326
:100EC0002F8F04E04A1EC5E8532F03B1F4E709044D
:100ED00029D0D6E85F1F4A1C904200D80022C6E8FD
:100EE000532F03B1F5E788B2E16D51F82000D0B17E
:100EF0000178F1390829DDD8DFE801F00605090598
:100F0000050C0F051200D5E7216E8847D2E7616E08
:100F10008847CFE7A16E8847CCE7E16E8847C9E7ED
:100F2000216F8847C6E70020BDE8704000F00CB98B
:100F30009886002070B50146194800F15603B0F8B4
:100F40005420D3E85F4FA24202D8BFF32F8F04E0B2
:100F5000651CC3E8565F06B1F3E7A3B2934214D20F
:100F600000F15803D3E85F4F651CAA4200D8002562
:100F7000C3E8565F06B1F5E7A2B2C36D43F822108D
:100F8000417A39B10121817270BD0220BDE8704003
:100F9000FFF708BE03484FF08051016070BD00BFED
:100FA0009886002004ED00E010B58168B1B100F131
:100FB0000C01D1E85F2F12B9BFF32F8F04E0531E4D
:100FC000C1E8543F04B1F4E7110407D000F021F95F
:100FD00000210022BDE8104000F0CAB910BD000099
:100FE00010B5012190F9203041700A491C310A46A0
:100FF000896841B191F920409C42F8DCC0E90212B5
:1010000090600C3104E00021C0E9021202F10801F5
:10101000086010BD98860020B0B54A1C0DD01D4A4E
:1010200000232C3215462C68E4B1E569A94221D38E
:10103000491B04F110052346F5E71649002301F189
:10104000300214461946236803F11004002BF9D12D
:101050004FF0FF33C3610023C0E90431C1B101F196
:10106000100215E0C161C0E90443002B18BF03F171
:1010700010020DE0002BC0E90443C16118BF03F169
:10108000100210602CB1E269511A04F11402E161FE
:101090001060B0BD98860020C2690169531C0AD057
:1010A00021B143694B61CB691A44CA6142693AB9BB
:1010B000084AD16207E009B142694A6142692AB12E
:1010C0000023116143610021C1617047014A11632E
:1010D000F9E700BF9886002070B5114DEC6A1CB18D
:1010E000E0690138E06100D070BD042660781338F3
:1010F000B6EB301F05D1204600F0B4F82146FFF7CB
:10110000B1FE204600F0A4F8204600F0D9F824698A
:1011100024B1E0690028E9D000206061EC6270BD74
:1011200098860020C178C90708BF00F037B80021B1
:10113000C1600421417003494A6B826002B1D060F2
:10114000486370479886002070B5134E0546746951
:10115000307A65B1022805D194F9200095F9201064
:10116000814211DC2846BDE8704000F0A9B8022891
:1011700010D1756A75B194F9200095F9201081425B
:1011800008DD284600F064F82046FFF729FF02201A
:10119000B561687070BD00BF9886002010B5044628
:1011A00000202080A07881070DD5C00605D4104806
:1011B000216B406FFFF72FFD05E00D48216BD0F844
:1011C0008400FFF781FDA078C00708BF10BD084963
:1011D000D1F8880020B12146BDE81040FFF774BD6A
:1011E000D1F880002146BDE81040FFF714BD00BFD4
:1011F0009886002010B50446806918B100210022AD
:1012000000F0B6F86078232802D1A068002181613F
:1012100010BD0146806882688A6002B1D1600021F9
:10122000C160704710B591F920300246806840B126
:1012300090F920409C42F8DAC1E9020291600C303A
:1012400004E00020C1E9020202F10800016010BDC3
:10125000C16831B182688A60826802B1D1600021C0
:10126000C16070470178F12918BF7047C068F9E77D
:10127000B0B50446054625B12878F12802D1ED68BD
:10128000F9E7B0BD2046FFF7E3FF28462146BDE859
:10129000B040FFF7C7BF10B50446407833280DD1E2
:1012A00094F82320616A2046FFF7DAFA30B101464C
:1012B00020460022BDE8104000F05AB810BD0000E2
:1012C00001460120487002481C30FFF7ABBF00BF49
:1012D0009886002090F82210C9064FF0200158BFD0
:1012E0006021806B0844704770B50B4C0B4800219F
:1012F000A26D666E00F0B8FE094DA86246B1B04717
:1013000040B9E96CD4E9172000F0AEFEA86408B13A
:10131000012070BD002070BD54A300089B980008F8
:10132000988600200249886102214170704700BF01
:101330009886002010B50D4C227A022A14D1626AD8
:1013400092B1626950701046FFF766FE606A81686C
:10135000616211B104F11C02CA600221A0614170F6
:101360000021C160012010BD002010BD9886002022
:10137000B0B5044690F822001546C0064FF0200094
:1013800058BF6020A26B81502046FFF785FE2046A3
:10139000002DBDE8B04008BFFFF792BFFFF7D4BEF5
:1013A000B0B5FFF7E3F91B4DE8680130E860FFF7DF
:1013B00093FE0020FFF7C8FE286D00B18047296C1E
:1013C00071B1A869EA6B904205D0C269E86322B99D
:1013D000C1610A4601E0C2691AB1511EC16100D063
:1013E000B0BD297A0229FBD16C6A002CF8D090F8A4
:1013F000200094F820108142F2D12046FFF728FF08
:10140000E86BFFF75DFF2046FFF78CFF286CEC636D
:10141000E061B0BD9886002080B5FFF7EBFC10B10D
:101420004FF0FF3080BD024802490165002080BDB9
:10143000988600205914000882B004466D46204664
:10144000294600224FF0FF33FFF7DAFA0028F6D1E1
:10145000DDE900108847F2E72DE9F041194D6C6C89
:1014600074B320696E694FF001080138206134B30C
:10147000206920BBE06808B1A16881606864E86CFD
:1014800004F1180100220023FFF704FB60B1D5E945
:101490000570214668610320FFF784FB696986EACD
:1014A0000700084308BF0646E078012811BF84F80A
:1014B000018061692046FFF705FA6C6CD7E76E6121
:1014C000BDE8F08198860020EFF305822AB9EFF39A
:1014D000108212B9EFF31182CAB16FF00302A0B10A
:1014E00099B90178F62910D10C30D0E85F1F11B9F5
:1014F000BFF32F8F04E04A1EC0E8532F03B1F4E777
:101500000022080408BF6FF0020210467047DFF89F
:1015100008C000DF704700BFC91D0008EFF3058158
:1015200029B9EFF3108111B9EFF3118111B16FF007
:1015300005007047DFF804C000DF7047211E000877
:10154000EFF305832BB9EFF3108313B9EFF3118396
:101550000BB100207047DFF808C000DF704700BF04
:10156000811E000810B50446EFF3058028B9EFF39B
:10157000108010B9EFF3118090B15CB12078F6289B
:1015800008D12046FFF755F938B12046FFF7D2FCC5
:10159000002010BD6FF0030010BD6FF0020010BD01
:1015A0002046DFF808C000DF10BD00BFFD1E0008A8
:1015B000DFF804C000DFFEE7351F0008EFF3058108
:1015C00029B9EFF3108111B9EFF3118109B1FFF7D8
:1015D00013B9DFF808C000DF704700BF811F0008A3
:1015E000B0B5EFF305822AB9EFF3108212B9EFF329
:1015F0001182DAB16FF00304B0B1002914D402787B
:10160000F12A11D14278042A02D16FF002040BE0D2
:1016100000F1280252E8003F43EA010442E8004595
:1016200005B1F7E7FFF786FC2046B0BDDFF804C040
:1016300000DFB0BDB51F0008EFF305832BB9EFF352
:10164000108313B9EFF311830BB1FFF7D5B8DFF8AF
:1016500008C000DF704700BF1D200008EFF30583BE
:101660002BB9EFF3108313B9EFF311830BB1002003
:101670007047DFF808C000DF704700BF692000082E
:10168000EFF3058129B9EFF3108111B9EFF311815F
:1016900009B1FFF7B1B8DFF808C000DF704700BF3D
:1016A00055220008EFF3058028B9EFF3108010B938
:1016B000EFF3118008B1FFF79FB8DFF808C000DF33
:1016C000704700BFDD22000810B5EFF305842CB988
:1016D000EFF3108414B9EFF311840CB1002010BDA6
:1016E000DFF804C000DF10BD15230008EFF305820A
:1016F0002AB9EFF3108212B9EFF3118212B16FF031
:1017000005007047DFF804C000DF70478D23000834
:1017100030B180B501461320FFF70CFE013880BDC3
:101720006FF00300704700000148007A704700BF67
:101730009886002001484068704700BF54A3000805
:101740002DE9F843DFF8EC8098F8080028B101286B
:101750006CD04FF0FF30BDE8F883374F388AD7E9B7
:101760000B41A8F85400D7E90202C8F8400020460F
:10177000C8F85C20FFF770FA08B1C8F88040D7E9D4
:101780000541DFF8B890D7E907562046C847D8F892
:1017900080100028284618BF2146C8F8741031462A
:1017A000C847D8F88010002818BF2946C8F8781014
:1017B000D7E909412046C847D8F88010002818BF4B
:1017C00021467C6BC8F87C101CB1FFF70FF8C8F8F5
:1017D0008440BC6B1CB1FFF709F8C8F88840FC6B6B
:1017E0001CB1FFF703F8C8F88C403C6C1CB1FEF745
:1017F000FDFFC8F890407C6C1CB1FEF7F7FFC8F8FD
:101800009440BC6C1CB1FEF7F1FFC8F89840FC6C2A
:101810001CB1FEF7EBFFC8F89C403C6D1CB1FEF715
:10182000E5FFC8F8A040012088F808000020BDE8C6
:10183000F88300BF9886002054A30008590C0008C4
:10184000B0B51D4C207A01281CD1FFF74DFDC8B161
:101850001A48FF211A4D8175817D026881F0FF01D0
:10186000C2F30222B1FA81F1C1F120018A4228BFFC
:10187000511CFE2202FA01F1C17468681149FEF799
:1018800095FF10B14FF0FF30B0BDFEF78BFF206128
:10189000FEF772FF04F11C00FFF7BBFCFFF742FDEF
:1018A0002878C0070CBF0320022080F31488022090
:1018B00020720020B0BD00BF988600200CED00E033
:1018C00054A300085B0300082DE9F04100284AD02A
:1018D00004460078FA2846D10E46002943D0204617
:1018E0001D469046FEF7E7FE002841D007462046F9
:1018F0003946FEF72CFF626A07F10C013046FEF70D
:10190000DEFDB8F1000F1CBFF87888F8000004F184
:101910000C063946002530463D70FFF7D5F9A06822
:1019200018B33046FFF7B3F90025F0B1064620465C
:10193000FFF76FFC002101220746FFF719FD38462B
:10194000FFF7C8FC8168626A074606F10C00FEF7E3
:10195000B6FDF9203146B5703070F868F070204659
:10196000FEF7C9FE01E06FF003052846BDE8F081EF
:1019700085B183202946FFF7DDFC40B10748416966
:101980002046FFF74FFCEFF30980C0E902686FF0D3
:101990000105EAE76FF00205E7E700BF988600203F
:1019A0002DE9F84F48B10D4639B10446B0FA80F040
:1019B000B5FA85F10844202803D200263046BDE858
:1019C000F88F05F10F0020F0030808FB04F95AB165
:1019D0009668D2F800A0D2E904707EB1B107ECD1CC
:1019E000D1683429E9D30CE04FF0000A00273049D0
:1019F000D1F8A00058B1FFF74AF90EE0D1680029EC
:101A0000DBD157B3B907D8D14845D6D327E0D1F8B1
:101A1000800034210122FFF7C8F806464FF0010B81
:101A200067BB5EB3CDF800A0DFF884A04946002272
:101A3000DAF87C00FFF7B9F8074620B13846494686
:101A4000FEF7B4FD16E0BBF1000F12D0DAF8A000EB
:101A500050B13146FFF738F90BE00028ADD1002E28
:101A6000C5D04FF0000BDBE7DAF880003146FFF716
:101A7000D2F80026DDF800A00BF1020B002E3FF497
:101A80009DAF0020214642463B4686F802B0C6E99B
:101A90000950C6E90B00C6E901A0FA20307006F132
:101AA0000C00FFF736F902480249016786E700BFDC
:101AB000988600204B0D00082DE9F04120B3054623
:101AC0000078FA2820D10E46F1B1A8681F4690464A
:101AD000F8B1407883281CD12846FFF79AFB0021F3
:101AE000012204460027FFF743FC2046FFF7F2FBE4
:101AF000044680686A6A3146FEF7E1FCE06828B176
:101B000080F80080002701E06FF003073846BDE849
:101B1000F08105F10C00FFF7BAF880B16A6A04465B
:101B20000C303146FEF7CBFCF9200027214684F823
:101B3000038020702846A770FEF7DDFDE6E787B139
:101B400093203946FFF7F6FB40B107484169284624
:101B5000FFF768FBEFF30980C0E902686FF0010747
:101B6000D4E76FF00207D1E79886002070B50446ED
:101B7000214845694DB32CB32078F52822D1207E29
:101B800030B30E46E178CA0702D0E268AA422BD0F1
:101B900066B388070AD5E06895F9201090F92020EF
:101BA0008A4203DA80F82010FFF762FB53203146A7
:101BB000FFF7C0FB18B120462946FFF733FB6FF053
:101BC000010070BD6FF0030070BD4FF0FF3070BDBD
:101BD0000020C4E90350E86A606100B1046101209B
:101BE000EC622076002070BDFF2802D16FF0020069
:101BF00070BD0130F5E700BF98860020B0B520B376
:101C000004460078F52820D1207EC0B36169E068E1
:101C100009B122690A6100F12C0223691546002BE3
:101C200018BF03F114052960E178890721D590F8E0
:101C30002110126862B193682BB193F920304DB234
:101C4000AB42C8BFD9B21432F3E76FF00300B0BDA6
:101C500090F820208A420CD080F82010FFF708FB73
:101C600007E02046FFF7D5FA6FF002010022FFF7E8
:101C70007FFBA0680028F4D10020FFF765FAA17867
:101C800000202070C9070DD00749D1F8940018B181
:101C90002146FFF719F804E0D1F880002146FEF74D
:101CA000BAFF0020B0BD00BF9886002070B550B1CB
:101CB0008468D0E900657CB1A10710D1C16800201B
:101CC0001C2917D270BD002500261149D1F89400B7
:101CD00038B1FEF7DCFF0AE0C0680028F5D000202C
:101CE00070BDD1F880001C210122FEF75EFF044682
:101CF00058B10120A070F52011216660E5702070B8
:101D000004F10800FEF774FC00E00024204670BDDA
:101D10009886002070B504462A48406970B154B1D5
:101D20002178F52907D1217E11B1E268824209D0DC
:101D30006FF0020404E06FF0030401E04FF0FF34A1
:101D4000204670BD01392176090601D00024F7E74D
:101D5000616909B122690A6100F12C022369154603
:101D6000002B18BF03F114052960E17889070FD50E
:101D700090F8211012684AB193682BB193F9203082
:101D80004DB2AB42C8BF19461432F3E780F82010B9
:101D9000A06888B12046FFF73CFA002100220546E2
:101DA0000026FFF7E5FAE86AC4E90356606100B16E
:101DB00004610120EC62207600200024FFF7C4F9C2
:101DC000BEE700BF98860020B0B508B3044600788F
:101DD000F6281DD104F10C00D0E85F2F12B9BFF333
:101DE0002F8F04E0531EC0E8553F05B1F4E71004FF
:101DF0001CBF0020B0BD71B16320FFF79BFA20B17A
:101E0000064841692046FFF70DFA6FF00100B0BDAA
:101E10006FF00300B0BD6FF00200B0BD98860020E7
:101E200010B500B304460078F6281CD1A06868B14C
:101E30002046FFF7EEF96FF002010022FFF798FA53
:101E4000A0680028F4D10020FFF77EF9A1780020D7
:101E50002070C90710D00949D1F8980030B1214647
:101E6000FEF732FF07E06FF0030010BDD1F88000ED
:101E70002146FEF7D0FE002010BD00BF988600204E
:101E800070B50C46002198B30546B1EB104F2FD129
:101E9000AC4215D84AB19068166870B181070FD16D
:101EA000D2680021102A15D222E000261149D1F86B
:101EB000980038B1FEF7EBFE0AE0D0680028F5D0B4
:101EC000002115E0D1F8800010210122FEF76DFEFF
:101ED00060B1012100228170F621C5818481C0E9B1
:101EE000016201700349044A8A6600E0002001464D
:101EF000084670BD98860020A90F000810B560B193
:101F00000178F62909D1816859B1FFF782F90021DA
:101F100001220024FFF72CFA01E06FF003042046B1
:101F200010BDFEF786FC0021002808BF6FF00201FB
:101F3000084610BDB0B5114D287A02281DD1686A37
:101F4000D8B16C69E06AFEF769FF2046FFF752F9E5
:101F5000686A8168696211B105F11C02CA600221D8
:101F6000A86141700021C160EFF30980A06369613D
:101F70002046BDE8B040FFF7D5B8B0BD9886002038
:101F800010B501460A48406960B100290DD400F13E
:101F9000280252E8000F20EA010342E8003404B1AD
:101FA000F7E710BD4FF0FF3010BDFEF731BC00BFAA
:101FB00098860020B0B56FF0030460B300292AD4DE
:101FC00005460078F12826D16878042802D16FF000
:101FD000020420E005F1280050E8002F42EA010445
:101FE00040E8004303B1F7E76878332813D195F848
:101FF0002320696A2846FEF733FC60B1014695F854
:1020000023000C4680075CBF686A21EA000428466A
:102010000122FFF7ADF92046B0BD0000F8B5054636
:102020001048476957B1002D0BD40E461446384668
:1020300029463246FEF714FC30B1F8BD4FF0FF30B0
:10204000F8BD6FF00300F8BD4CB13320214687F88E
:1020500023607D62FFF76EF96FF00100F8BD6FF04D
:102060000200F8BD988600202DE9FE4F002800F000
:10207000878005466AB102F110099668D2E90073BB
:1020800099E81003C6B1B0077AD1D068442816D2B7
:1020900076E04FF0010B4FF01809002300244FF0B9
:1020A00000080027664A0293CDE90017D2F888009D
:1020B000A8B1FEF7ECFD18E0D068002860D124B18B
:1020C00060075DD1B8F1000F5AD0B9F1000F3BD0D5
:1020D000B9F1010F54DBB9F1380F37DD50E0D2F818
:1020E000800044210122FEF760FD06464FF0010A00
:1020F0000027002C53D1002E51D0BBF1000F0DD082
:102100004F485049D0F88400D1F8548030B1FEF7E0
:10211000BEFD60B104460AF1100A3EE0484841465F
:102120000022406FFEF741FD08B1044635E01FB1C3
:102130004FF0000A00242FE04149D1F8880018B37D
:102140003146FEF7C1FD24E04FF01809B8F1000F49
:1021500008D05FEA487013D1B8F1480F10D3B8F136
:10216000000F0DD4B8FA88F0002E4FEA501B3FF450
:1021700099AFCDE9001702934FF0000A0127B8E7A5
:1021800000263046BDE8FE8FD1F880003146FEF7CC
:1021900042FD00244FF0010A00264AF0020A002EF8
:1021A000EFD00198182186F802A070600298F070B4
:1021B00040F2F110308006F10800FEF719FA04EB46
:1021C00008010020C6E90C48FD22009F86F82190F6
:1021D00086F820904039C6F82300C6F82700C6F8D4
:1021E0002B0086F82F0086F82220C6E90E15164926
:1021F000216014490978490715D4B16B00220D2AD2
:1022000003D041F822000132F9E7104A4FF0807004
:102210000F62C8630A48C1E90D250D4901663046C1
:10222000FEF792FFADE76FF01001221D4FF0CC33A7
:1022300001EB98010029E0D008C20139FAE700BF9C
:102240009886002054A30008A52E5AE2B115000874
:102250009712000810B5A0B1FEF7E7FA11D1607827
:1022600000F00F0001280ED0032810D0022805D15D
:102270001948017A022901D1406A50B96FF0020071
:1022800010BDFEF7C5BA2046FEF7E2FF01E0FEF7FB
:10229000C2FAE06AFEF7C2FD2046FEF7ABFF6078A7
:1022A000022811D10C48416A8A68426212B100F1D9
:1022B0001C03D360022281614A700022CA60EFF3DE
:1022C0000981A163426102E00020FEF73DFF204644
:1022D000FEF728FF002010BD9886002070B50C4E38
:1022E000307A022811D1746A7CB1756994F8201093
:1022F00095F82000814208D12046FEF7A9FF284624
:10230000FEF7DEFF0220B4616070002070BD00BFE8
:1023100098860020F8B50E46002198B3012E31D8DA
:10232000144605464BB198681F6870B181070FD1FC
:10233000DA680021202A15D224E000271249D1F8BA
:102340008C0038B1FEF7A3FC0AE0D8680028F5D06D
:10235000002117E0D1F8800020210122FEF725FCA2
:1023600070B10121002281704FF4F971C670C4610F
:102370000180C0E90172C0E90322C0E9052500E03F
:10238000002001460846F8BD98860020B0B560B12F
:1023900005460078F22808D10C4631B16878022849
:1023A00006D12846FEF7B2FA08E06FF00300B0BD90
:1023B0000748006D40B102206C61687028462146D4
:1023C000FEF780FA0020B0BD6FF00200B0BD00BF84
:1023D0009886002000BFFEE72DE9F04107460C4635
:1023E0005748007900F0020018B94FF0FF30BDE8FF
:1023F000F081012F0CD0022F0AD0032F08D0042F18
:1024000006D0052F04D0062F02D06FF00400EEE7AF
:10241000072F5BD2DFE807F090045B6F83908D009D
:102420004848006820F4B84504F0030010B10128C2
:1024300006D102E045F4006505E045F4804502E080
:102440006FF00300D3E700BF04F0040020B10428BC
:1024500003D145F4006503E002E04FF0FF30C6E72A
:1024600000BF04F0100008B145F48055364880697B
:1024700020F0087604F0200018B145F4806546F09D
:10248000007604F0400028B146F4001601202C49E3
:10249000C87102E000202A49C8712B48866129488A
:1024A0000560406820F0310804F0800008B948F069
:1024B000200804F4807008B148F0100804F400709B
:1024C00008B148F001081F48C0F8048034E01D48F6
:1024D000006820F008051C48806920F400562CB1E3
:1024E00004F01AFF45F0080546F40056154805604B
:1024F0001548866120E01348006820F00405124862
:10250000806920F002062CB104F006FF45F00405B6
:1025100046F002060B4805600B4886610CE004F0AB
:10252000020028B10848806940F48010064988619B
:1025300002E00448C46100BF00BF002057E700006C
:10254000B8890020008002400090024002464FF00F
:10255000FF30704710B5024800F0E2FB10BD0000EC
:10256000EC88002010B5024800F0DAFB10BD000036
:102570004C8900200146087810381823B0FBF3F28C
:102580000848805CC865032A05D908686FF309000C
:10259000001D886503E008686FF309008865886D91
:1025A00070470000EC9F0008014600208A6A8B6992
:1025B000CBB932B1012A0DD0022A03D0032A10D19F
:1025C0000EE000BFCB6A03F08073B3F1807F00D1CF
:1025D000012007E0CB6AB3F1C07F00D1012001E008
:1025E00000E000BF34E08B69B3F5005F1AD132B16F
:1025F000012A07D0022A03D0032A11D10AE000BF22
:1026000001200EE0CB6A03F08073B3F1807F00D12C
:10261000012006E0CB6AB3F1C07F00D1012000E0C9
:1026200000BF15E032B1012A05D0022A04D0032AE6
:102630000CD103E000BF00BF012008E0CB6A03F02B
:102640008073B3F1807F00D1012000E000BF00BFA4
:102650007047704770B500241048456910482840FD
:102660000E49486105F0010008B144F0020405F08C
:10267000400008B144F001040A48866B06F00800E7
:1026800018B10848C06A44F0040434B10648006830
:1026900018B1054801682046884770BD0090024087
:1026A0004100010000800240B889002030B5034697
:1026B0001479557944EA0520084C0C442064D478F8
:1026C0002406957844EA0544557844EA05241578AB
:1026D00044EA0500014C0C44606430BD00800240B7
:1026E00070B5AEB004460E46002526B14FF4006129
:1026F000E160C900A1600020119012901390149025
:1027000015901690E06918B94FF48060179001E0B9
:10271000002017904FF400701890002019901A9024
:102720001B901C901D9040201E9000201F90209018
:10273000219022902390249025902690802027900D
:102740000020289029902A902B902C902D90206882
:10275000056871480540DDE91101084313990843F4
:1027600014990843A168084315990843169908432A
:10277000E1680843179908431899084319990843D1
:102780001A9908431B99084305432068056020688F
:102790000568012000F05AFC20680560DDE91C0195
:1027A00008431E9908431F9908432099084321991B
:1027B0000843229908432399084321684860206808
:1027C0004568012000F042FC20684560249821689B
:1027D000886025982168C860206885694FF6417037
:1027E0000540DDE9261040EA01402899084329996F
:1027F00008432A9908432B990843054320688561BB
:1028000020688569012000F021FC20688561DDE9F0
:102810002C0108432168C8612068C569012000F0C7
:1028200015FC2068C561002001904FF000700290F7
:10283000002003904FF400100490002005900690B3
:102840000790089004200990C0050A9040120B9050
:1028500080010C9040120D9080200E9000200F906F
:102860001090206800F5805085692C480540DDE90E
:102870000101084303990843049908430599084353
:10288000069908430799084308990843099908439A
:102890000543206800F580508561206800F5805070
:1028A0008569012000F0D2FB206800F58050856129
:1028B000DDE90A0108430C9908430D9908430E9974
:1028C00008430F9940EA81001099084340F4000141
:1028D000206800F580500160206800F58050056890
:1028E000012000F0B3FB206800F580500560A0696E
:1028F000012809D1206800F58050C06908490843C3
:10290000216801F58051C861002120466269FFF706
:10291000CDFE2EB070BD00000F8120FF233FDEF8FA
:102920004000010072B600BFFEE7000001480068E9
:10293000704700008C9F00081CB5002000900E48D6
:10294000807A00F0020028B10B486A461021036823
:1029500001209847BDF80000012121EA50010198AB
:1029600061F301000190BDF800008108019861F356
:102970008200019001981CBDAC89002038B5002070
:1029800000900848807A00F0020028B105486A46A5
:102990000121036808469847BDF80000C0F3800491
:1029A000204638BDAC890020014611B96FF0040003
:1029B00070470C48007900F0020010B94FF0FF306A
:1029C000F6E70948026C100A48710A710648426C21
:1029D000100EC870100C8870100A48700A70002021
:1029E000E6E70000B88900200080024010488079A6
:1029F000104A02EB401001680D48007900F0020017
:102A000008B90020704701F0004008B10020F9E744
:102A100001F4004028B901F4007010B101F4807095
:102A200010B94FF0FF30EDE7C1F30D40001FE9E7AB
:102A3000B8890020C489002001464FF0FF3070475C
:102A400001464FF0FF30704708B50248006800901B
:102A500008BD0000649F000808B5024800680090A7
:102A600008BD0000889F000870B504460CB901201D
:102A700070BD94F8200010B9204600F0AFF820682F
:102A8000006840F001002168086000F063FF05461F
:102A90000DE000F05FFF401B0A2808D9606A40F48F
:102AA00000306062052084F820000120E0E7206803
:102AB000406800F001000028EBD02068006820F09A
:102AC00002002168086000F045FF05460DE000F0B7
:102AD00041FF401B0A2808D9606A40F40030606258
:102AE000052084F820000120C2E72068406800F03B
:102AF00002000028EBD1207E012806D12068006862
:102B000040F080002168086005E02068006820F03F
:102B1000800021680860607E012806D12068006876
:102B200040F040002168086005E02068006820F05F
:102B3000400021680860A07E012806D12068006856
:102B400040F020002168086005E02068006820F05F
:102B5000200021680860E07E012806D12068006816
:102B600020F010002168086005E02068006840F04F
:102B7000100021680860207F012806D120680068C5
:102B800040F008002168086005E02068006820F037
:102B9000080021680860607F012806D1206800686D
:102BA00040F004002168086005E02068006820F01B
:102BB000040021680860D4E9020108432169084340
:102BC000616908436168491E08432168C8610020A3
:102BD0006062012084F82000002049E710B586B02B
:102BE0000446142101A8FDF703FD474920688842E7
:102BF0003AD146480068401C4449086008460068CD
:102C000001280FD100BF002000904148006840F02B
:102C100000703F4908600846006800F000700090AE
:102C200000BF00BF00BF0020009039481038006886
:102C300040F001003649103908600846006800F08D
:102C40000100009000BF00BF4FF4C050019002206F
:102C5000029000200390032004900920059001A910
:102C60002C4800F079FD4CE02B492068884248D17F
:102C700000BF002000902648006840F08060244992
:102C800008600846006800F08060009000BF00BF48
:102C90001E480068401C1D4908600846006801285D
:102CA0000FD100BF002000901948006840F000706C
:102CB000174908600846006800F00070009000BFE7
:102CC00000BF00BF0020009011481038006840F09D
:102CD00002000F49103908600846006800F0020041
:102CE000009000BF00BF60200190022002900020F1
:102CF0000390032004900920059001A9074800F0E3
:102D00002BFD06B010BD000000640040648600206A
:102D100040380240000002400068004000040240C9
:102D2000F8B50446002000908C4800684FF4165116
:102D3000B0FBF1F7A56D2E6894F85C100820884070
:102D4000304098B12068006800F0040070B120683D
:102D5000006820F004002168086094F85C100820E6
:102D60008840A860606D40F00100606594F85C10D8
:102D700001208840304068B12068406900F0800040
:102D800040B194F85C1001208840A860606D40F06C
:102D90000200606594F85C1004208840304068B1FF
:102DA0002068006800F0020040B194F85C10042034
:102DB0008840A860606D40F00400606594F85C1085
:102DC00010208840304078B32068006800F0080088
:102DD00050B394F85C1010208840A8602068006808
:102DE00000F4802080B12068006800F4002028B939
:102DF000206CC8B12046216C884715E0A06C98B1C2
:102E00002046A16C88470FE02068006800F48070BD
:102E100028B92068006820F0080021680860206C4C
:102E200010B12046216C884794F85C10202088401F
:102E30003040002865D02068006800F010000028AD
:102E40005FD094F85C1020208840A86094F835008A
:102E5000052828D12068006820F016002168086045
:102E60002068406920F0800021684861206C08B922
:102E7000A06C28B12068006820F008002168086074
:102E800094F85C103F208840A860012084F8350049
:102E900000BF002084F8340000BF206D10B1204630
:102EA000216D8847F8BD2068006800F4802080B15B
:102EB0002068006800F4002028B9606C10B120463A
:102EC000616C88471DE0E06BD8B12046E16B884714
:102ED00017E02068006800F4807068B92068006816
:102EE00020F0100021680860012084F8350000BF40
:102EF000002084F8340000BFE06B10B12046E16B85
:102F00008847606D38B3606D00F00100F0B10520B6
:102F100084F835002068006820F00100216808600E
:102F200000BF0098401C0090B84200D905E020681E
:102F3000006800F001000028F3D100BF012084F8F0
:102F4000350000BF002084F8340000BFE06C10B1F1
:102F50002046E16C884700BFA4E700006886002097
:102F60002DE9F0410446002500F0F4FC074614B9B1
:102F70000120BDE8F081606A00B100BF022084F842
:102F8000350000BF002084F8340000BF20680068CE
:102F900020F00100216808600AE000F0DBFCC01BA3
:102FA000052805D920206065032084F83500E0E776
:102FB0002068006800F001000028EED12068056854
:102FC00021480540D4E901010843E168084321692B
:102FD000084361690843A1690843E1690843216A1C
:102FE00008430543606A042803D1D4E90B01084370
:102FF0000543206805602068456925F00705606A7B
:103000000543606A04280DD1A06A0543E06A48B10F
:103010002046FFF7C9FA28B140206065012084F8F6
:103020003500A6E7206845612046FFF7A3FA06466B
:1030300094F85C103F208840B0600020606501205B
:1030400084F83500002094E73F8010F070B5044606
:1030500000F080FC06462546681C10B10448007844
:10306000054400BF00F076FC801BA842FAD370BD77
:10307000608600202DE9FC410446002500200190D7
:103080009D4E0027804614B90120BDE8FC8194F8CC
:10309000440028B9002084F84500204600F06EF96D
:1030A00000BF002000909548006840F4804093499C
:1030B00008600846006800F48040009000BF00BF30
:1030C0008F48006820F400008D49086008460068B9
:1030D000216A08438A490860206800F5805000682A
:1030E00040F00101206800F58050016000F032FCE2
:1030F00007460FE000F02EFCC01BB0F5FA7F09D99F
:10310000032084F8440000BF002084F8450000BF7D
:103110000320BAE7206800F58050006800F0010045
:103120000028E7D12068056925F01C0500F038FF6C
:1031300006467448864205D37348864202D245F05B
:1031400008051AE07048864205D36B48864202D2D1
:1031500045F00C0511E06848864203D36B4886426F
:1031600000D20AE06948864205D36948864202D205
:1031700045F0040501E045F01005206805614FF4B5
:1031800000420021204600F0ECF948B14FF0010860
:1031900041462046FFF7A4FA012084F8440074E772
:1031A000FF20FFF753FF6068002871D000F0D2FBCA
:1031B000074600BF01AA0121204600F089F900F06E
:1031C000C9FBC01B41F2883188420FD94FF001087A
:1031D00041462046FFF784FA012084F8440000BFEE
:1031E000002084F8450000BF03204EE7019800F05E
:1031F00004000428DED182020021204600F0B1F94B
:1032000048B14FF0010841462046FFF769FA012016
:1032100084F8440039E700F09DFB074600BF01AA8F
:103220000121204600F054F900F094FBC01B41F24C
:10323000883188420FD94FF0010841462046FFF7F8
:103240004FFA012084F8440000BF002084F84500B4
:1032500000BF032019E7019800F020002028DED1EC
:1032600001AA1021204600F033F948B14FF00108BF
:1032700041462046FFF734FA012084F8440004E771
:10328000019800F0040020B14FF40061E16002E019
:103290000DE00021E160019800F00200022802D157
:1032A0000021A1601EE04FF48041A1601AE0E068B7
:1032B000C0F3CF00A168C1F34F0140EA0102002131
:1032C000204600F04EF948B14FF001084146204633
:1032D000FFF706FA012084F84400D6E640F6FF70B6
:1032E000FFF7B4FE41462046FFF7FAF9012084F8C3
:1032F00044000020C9E600000087930344380240E0
:1033000004380140002D3101C00E160200E1F50520
:1033100080D1F00810B5044613492068884221D1B5
:1033200000BF1248006820F080601049086008461D
:10333000006820F0006008600846006820F0007017
:10334000086000BF32210A4800F054F9862109487C
:1033500000F050F94FF46051074800F04BF93D2060
:1033600000F0BEFC10BD000000800240303802407A
:1033700000080240000002400004024010B586B080
:103380000446142101A8FDF733F94C49206888420E
:103390007ED100BF00BF002000904948006840F087
:1033A0000070474908600846006800F0007000900F
:1033B00000BF00BF00BF002000900846006840F03A
:1033C000806008600846006800F08060009000BFE0
:1033D00000BF00BF002000900846006840F0006079
:1033E00008600846006800F00060009000BF00BF61
:1033F00000BF00BF002000900846006840F00400B5
:1034000008600846006800F00400009000BF00BF9C
:1034100000BF002000900846006840F001000860EE
:103420000846006800F00100009000BF00BF00BF28
:10343000002000900846006840F00200086008463E
:10344000006800F00200009000BF00BF3220019031
:103450000220029000200390032004900B2005908E
:1034600001A9184800F078F9862001900220029006
:1034700000200390032004900B20059001A912481E
:1034800000F06AF94FF4605001900220029000E0D1
:1034900011E000200390032004900B20059001A967
:1034A0000A4800F059F9002211463D2000F042FC84
:1034B0003D2000F02BFC06B010BD00000080024053
:1034C0003038024000080240000002400004024080
:1034D0002DE9F04104460E4617460025A84694F80B
:1034E0004400822802D10220BDE8F081822084F8C5
:1034F00044002068056905F01C05208A4FF47841D6
:1035000001EAC0200543481100EA8610054325F072
:10351000020545F001052068056100F01BFA8046B0
:1035200012E000F017FAA0EB0800B0F5803F09D3D5
:10353000012084F8440000BF002084F8450000BF4B
:103540000320D1E72068056905F001000028E8D1D3
:103550002068406980B23860012084F8440000206F
:10356000C2E72DE9F04104460E4617460025A8465D
:1035700094F84400422802D10220BDE8F0814220A4
:1035800084F844002068056905F01C05208A4FF482
:10359000784101EAC0200543481100EA861005433E
:1035A00045F0020545F00105B8B221684861206880
:1035B000056100F0CFF9804612E000F0CBF9A0EBF6
:1035C0000800B0F5803F09D3012084F8440000BF13
:1035D000002084F8450000BF0320CEE7206805697D
:1035E00005F001000028E8D1012084F84400002003
:1035F000C3E70000F0B50C4600250022002300219F
:1036000092E0012606FA01F504EA0502AA427DD1FC
:10361000474E8F0856F827308E07370F0F26BE40CB
:103620003340444EB04201D1002623E0424EB04226
:1036300001D101261EE0414EB04201D1022619E01F
:103640003F4EB04201D1032614E03E4EB04201D1BC
:1036500004260FE03C4EB04201D105260AE03B4E65
:10366000B04201D1062605E0394EB04201D107260D
:1036700000E008268F073F0FBE409E4222D1354E04
:1036800036689643334F3E603E1D366896433F1D75
:103690003E603E1D366896433F1D3E603E1D3668C7
:1036A00096433F1D3E608E07370F0F2606FA07F33D
:1036B0001F4E8F0856F827609E431D4F4FEA910C0E
:1036C00047F82C6006684FEA410C032707FA0CF70D
:1036D000BE430660CF0800F1200656F827604F076A
:1036E0004FEAD76C0F2707FA0CF7BE434FEAD10C0D
:1036F00000F1200747F82C60C6684FEA410C032709
:1037000007FA0CF7BE43C660466800E00BE00127ED
:103710008F40BE43466086684FEA410C032707FA94
:103720000CF7BE438660491C1029FFF46AAFF0BD58
:103730000838014000000240000402400008024036
:10374000000C024000100240001402400018024029
:10375000001C0240003C0140F8B502460B46002523
:10376000002400200021D5E0012606FA01F51E689C
:1037700006EA0504AC4274D11E7906F00306012E58
:1037800004D01E7906F00306022E13D190684F0074
:103790000326BE40B0434F00DE68BE403043906019
:1037A000506801268E40B0431E79C6F300168E4045
:1037B000304350601E7906F00306032E09D0D0680E
:1037C0004F000326BE40B0434F009E68BE403043CA
:1037D000D0601E7906F00306022E13D1CF0802F145
:1037E000200656F827004E07F70E0F26BE40B043BE
:1037F0004F07FF0E1E69BE403043CF0802F120067E
:1038000046F8270010684F000326BE40B0431E79DB
:1038100006F003064F00BE40304310605E6806F4B9
:103820004036002E75D000BF002600963B4E36680D
:1038300046F48046394F3E603E46366806F4804680
:10384000009600BF00BF364E8F0856F827008E073F
:10385000370F0F26BE40B043324EB24202D100268F
:1038600024E056E0304EB24201D101261EE02F4E38
:10387000B24201D1022619E02D4EB24201D10326F7
:1038800014E02C4EB24201D104260FE02A4EB2427F
:1038900001D105260AE0294EB24201D1062605E0F3
:1038A000274EB24201D1072600E008268F073F0FBE
:1038B000BE4030431A4E8F0846F82700214E30682C
:1038C000A0435E6806F4803606B120431D4E30608A
:1038D000361D3068A0435E6806F4003606B120430A
:1038E000184E361D3060361D3068A0435E6806F401
:1038F000801606B12043134E08363060361D3068FE
:10390000A0435E6806F4001606B120430D4E0C3647
:103910003060491C1029FFF427AFF8BD443802403D
:103920000838014000000240000402400008024044
:10393000000C024000100240001402400018024037
:10394000001C0240003C01400AB1816101E00B040F
:103950008361704701480068704700005886002066
:1039600070B504460CB9012070BD94F83D0028B92B
:10397000002084F83C00204600F0DAF8242084F887
:103980003D002068006820F0010021680860206880
:10399000006840F40040216808602068006820F456
:1039A00000402168086000F001FB05465C49606842
:1039B000884206D85B48854201D2012007E00020FA
:1039C00005E05948854201D2012000E0002001288D
:1039D00000D1C9E75548B5FBF0F62068406820F0F3
:1039E0003F003043216848604D496068884201D8F3
:1039F000701C07E04FF4967070434FF47A71B0FB7F
:103A0000F1F0401C2168096A21F03F010843216858
:103A1000086243496068884214D8681E616849009A
:103A2000B0FBF1F0401CC0F30B00042801D20420CD
:103A30003DE0681E61684900B0FBF1F0401CC0F336
:103A40000B0034E0A06838B9681E616801EB4101E1
:103A5000B0FBF1F0401C0AE0681E616801EBC10296
:103A600002EB0111B0FBF1F0401C40F48040C0F3C8
:103A70000B0008B901201AE0A06848B9681E616807
:103A800001EB4101B0FBF1F0401CC0F30B000CE076
:103A9000681E616801EBC10202EB0111B0FBF1F09D
:103AA000401CC0F30B0040F4804040F4004021680B
:103AB000C9694CF6FF72914308432168C861D4E993
:103AC000070108432168096821F0C0010843216803
:103AD0000860D4E9031008432168896848F2FF327E
:103AE0009143084321688860D4E9050108432168AF
:103AF000C96821F0FF0108432168C8602068006898
:103B000040F001002168086000202064202084F833
:103B10003D000020206384F83E0000BF24E7000041
:103B2000A086010080841E0000093D0040420F0075
:103B300010B586B00446142101A8FCF759FD1B49B5
:103B40002068884230D100BF0020009018480068EB
:103B500040F00200164908600846006800F00200C4
:103B6000009000BF00BF4FF4C0700190122002907F
:103B700000200390032004900420059001A90D4823
:103B8000FFF7EAFD00BF00200090094810300068F0
:103B900040F400100649103108600846006800F43F
:103BA0000010009000BF00BF06B010BD00540040E0
:103BB0003038024000040240034800680349097895
:103BC000084401490860704758860020608600203C
:103BD00010B50D48006840F400700B4908600846B5
:103BE000006840F4806008600846006840F4807017
:103BF0000860032000F0DCF80F2000F007F800F068
:103C00004BF8002010BD0000003C024070B588B0A9
:103C1000044600250026002221462D2000F08AF8C7
:103C20002D2000F073F800BF0020019016480068B6
:103C300040F48070144908600846006800F4807001
:103C4000019000BF00BF02A903A800F087F900F0AF
:103C5000ADF945000D48B5FBF0F0461E0C480D4986
:103C6000086040F2E7310B48C16046600021016105
:103C7000816000F0CDFE20B9064800F0FDFE08B0DE
:103C800070BD0120FBE700004038024040420F00B9
:103C900000200040A4AE002008B500BF0020009026
:103CA0000E48006840F480400C49086008460068EF
:103CB00000F48040009000BF00BF00BF00200090D3
:103CC000081F006840F08050091F0860084600681F
:103CD00000F08050009000BF00BF08BD4438024093
:103CE00010B50146084600280BDB00F01F03012237
:103CF0009A40054B440943F82420BFF34F8FBFF38C
:103D00006F8F00BF10BD000080E100E00146084653
:103D100000280DDB00BF00BF00F01F0301229A4006
:103D200043099B0003F1E023C3F8002100BF00BF5B
:103D300000BF70472DE9F05F80460D46164600270C
:103D400002F028FD074639462A46334601F00700AF
:103D5000C0F1070ABAF1040F02D94FF0040A01E0DA
:103D6000C0F1070AD14600F1040ABAF1070F02D2E6
:103D70004FF0000A01E0A0F1030AD4464FF0010A17
:103D80000AFA09FAAAF1010A0AEA020A0AFA0CFA7C
:103D90004FF0010B0BFA0CFBABF1010B0BEA030B21
:103DA0004AEA0B042146404602F0FCFCBDE8F09FC5
:103DB00000BF00F00702064B19684FF6FF031940D9
:103DC000044B0B4343EA0221014B196000BF7047CB
:103DD0000CED00E00000FA0570B504460D460CB984
:103DE000012070BD5848006800F00700A84209D2C1
:103DF00055490D700846006800F00700A84201D040
:103E00000120EEE7207800F0020002281DD1207882
:103E100000F00400042805D14C48006840F4E0504C
:103E20004A490860207800F00800082805D1474872
:103E3000006840F46040454908604448006820F04C
:103E4000F000A168084341490860207800F00100B3
:103E5000A8B36068012807D13C4808380068C0F35F
:103E60004040B8B90120BCE76068022802D0606811
:103E7000032807D1354808380068C0F3406048B9C6
:103E80000120AEE7314808380068C0F3400008B9A7
:103E90000120A6E72D48006820F003006168084370
:103EA0002A490860FFF756FD064609E0FFF752FD74
:103EB000801B41F28831884202D9032091E707E054
:103EC0002248006800F00C006168B0EB810FEDD172
:103ED0001D48006800F00700A84209D91A490D7072
:103EE0000846006800F00700A84201D0012078E7EA
:103EF000207800F00400042807D11448006820F45A
:103F0000E050E168084311490860207800F008009B
:103F1000082808D10D48006820F46040216940EA73
:103F2000C1000A49086000F051F808490968C1F366
:103F30000311074A515CC8400649086006480068FA
:103F4000FFF764FE00204CE7003C024008380240C6
:103F5000F49F0008688600205C8600200F22026023
:103F60000D4A126802F0030242600B4A126802F026
:103F7000F0028260084A126802F4E052C260064A07
:103F8000126802F46042D2080261044A126802F028
:103F900007020A607047000008380240003C0240F7
:103FA00001480068704700006886002000B5FFF7F0
:103FB000F7FF04490968C1F38221034A515CC840F4
:103FC00000BD00000838024004A000082DE9F047B9
:103FD000002400250026A1462548006800F00C00BA
:103FE00020B1042805D008283AD105E0DFF88490F4
:103FF00039E0DFF8849036E01D48001F006800F0CB
:104000003F041B48001F006800F4800078B11A4884
:104010001749091F0968C1F38811A0FB0170014607
:10402000224600233846FCF7A7F905460EE0114862
:104030000F49091F0968C1F38811A0FB01700146EF
:10404000224600233846FCF797F905460848001F2A
:104050000068C0F30140401C4600B5FBF6F902E0E1
:10406000DFF8109000BF00BF4846BDE8F0870000B1
:10407000083802400024F40040787D01F8B5044679
:104080000CB90120F8BD207800F00100002874D0A0
:10409000F948006800F00C0004280DD0F6480068CC
:1040A00000F00C00082813D1F348001F006800F44A
:1040B0008000B0F5800F0BD1EF4808380068C0F3DE
:1040C0004040002859D06068002856D10120D9E727
:1040D00000BF6068B0F5803F08D1E7480838006845
:1040E00040F48030E449083908601EE06068B0F5AB
:1040F000A02F0DD1E0480838006840F48020DE4948
:10410000083908600846006840F4803008600CE018
:10411000D9480838006820F48030D7490839086049
:104120000846006820F48020086000BF606890B1F5
:10413000FFF710FC054606E0FFF70CFC401B642867
:1041400001D903209EE7CC4808380068C0F34040FE
:104150000028F1D011E0FFF7FDFB054606E0FFF770
:10416000F9FB401B642801D903208BE7C2480838BB
:104170000068C0F340400028F1D1207800F0020030
:1041800002285FD1BC48006800F00C0058B1BA4862
:10419000006800F00C0008281CD1B748001F006818
:1041A00000F48000B0B9B44808380068C0F340009B
:1041B00020B1E068012801D0012063E7AE4808384B
:1041C000006820F0F800216940EAC100AA490839D6
:1041D000086037E0E06800B30120A8490860FFF7F5
:1041E000B9FB054606E0FFF7B5FB401B022801D9E5
:1041F000032047E7A04808380068C0F340000028C3
:10420000F1D09D480838006820F0F800216940EAA4
:10421000C10099490839086014E0002097490860F6
:10422000FFF798FB054606E0FFF794FB401B0228CA
:1042300001D9032026E7904808380068C0F3400001
:104240000028F1D1207800F0080008282CD16069FE
:10425000A8B101208A490860FFF77CFB054606E00B
:10426000FFF778FB401B022801D903200AE78248A8
:104270006C300068C0F340000028F1D014E000204A
:104280007F490860FFF766FB054606E0FFF762FB23
:10429000401B022801D90320F4E677486C300068FF
:1042A000C0F340000028F1D1207800F00400042879
:1042B00070D1002770483830006800F0805090B905
:1042C00000BF002000906C483830006840F08050FB
:1042D0006949383108600846006800F08050009055
:1042E00000BF00BF01276748006800F48070B0B9C4
:1042F0006448006840F4807062490860FFF72AFB58
:10430000054606E0FFF726FB401B022801D90320E3
:10431000B8E65C48006800F480700028F2D000BF66
:10432000A068012808D154486830006840F00100B6
:104330005149683108601DE0A06805280DD14E483C
:104340006830006840F004004B4968310860084656
:10435000006840F0010008600CE0474868300068E1
:1043600020F001004449683108600846006820F0E8
:104370000400086000BFA068A8B1FFF7EBFA05468B
:1043800009E0FFF7E7FA401B41F28831884202D981
:10439000032077E626E0384868300068C0F3400024
:1043A0000028EED013E0FFF7D5FA054608E0FFF746
:1043B000D1FA401B41F28831884201D9032061E6DD
:1043C0002D4868300068C0F340000028EFD1012F6D
:1043D00007D129483830006820F08050264938310C
:1043E000086000BFA069002845D02348006800F09D
:1043F0000C0008285DD0A069022845D100201F4983
:104400000866FFF7A7FA054606E0FFF7A3FA401B88
:10441000022801D9032035E6174808380068C0F3A0
:1044200040600028F1D1D4E907010843616A40EAFD
:1044300081110122A06AC2EB500041EA00412C2008
:10444000005D41EA00600C49091F086001200B492A
:104450000866FFF77FFA054606E0FFF77BFA401B88
:10446000022801D903200DE6034808380068C0F38C
:1044700040600028F1D049E008380240000047427F
:10448000800E474200700040002021490866FFF777
:1044900061FA054606E0FFF75DFA401B022801D9E4
:1044A0000320EFE51B480068C0F340600028F2D10C
:1044B0002CE0A069012800D1E4E51648001D06683B
:1044C000A069012820D006F48001E06981421BD157
:1044D00006F03F01206A814216D147F6C070304095
:1044E000616AB0EB811F0FD106F440310122A06A4E
:1044F000C2EB5000B1EB004F06D106F070612C20EA
:10450000005DB1EB006F01D00120BBE50020B9E5F3
:104510000000474200380240F0B589B004460E461C
:104520000027032084F83400606C032820D0B6F5FF
:10453000805F04D1A06B40F08050A0631CE0B6F512
:10454000006F07D1204601F01FFE0546A06B2843EF
:10455000A06311E03EB9204601F0E2FD0546A06BE4
:104560002843A06308E0A06B40F00060A06303E074
:10457000A06B40F08050A063A06B38B11748216851
:104580008863012084F83400012713E060680390F9
:10459000A0680490E0680590069660690790A0699D
:1045A000089006A807C88DE80700206803A90EC96F
:1045B00001F0E2F84FF40071206801F053F905466C
:1045C00035B1064821688863A06B2843A0630127A2
:1045D000012084F83400384609B0F0BDFF054000E2
:1045E00010B50246506E800F0870506EC0F38360A5
:1045F0004870506EC0F301608870506E000CC87037
:10460000B2F86400000A087192F864004871906E74
:10461000000DC880906EC0F3034008726820805A75
:10462000C0F3C03048726820805AC0F3803088726E
:104630006820805AC0F34030C8726820805AC0F3A6
:104640000030087300204873506C002836D1682071
:10465000805A8005030DD06E43EA90700861D06ED9
:10466000C0F3C2600875D06EC0F302604875D06EAA
:10467000C0F342508875D06EC0F38240C875D06ECA
:10468000C0F3C23008760869401C50650B7E506D3F
:1046900003F007039B1C01249C4060435065087A8B
:1046A00000F00F03012098409065D2E915035B0AE2
:1046B0005843D0654FF40073136621E0506C012815
:1046C00013D16820805C8006830AD06E43EA1040D4
:1046D00008610869401C83025365536DD3654FF42C
:1046E00000739365936D13660AE02E481368986310
:1046F000906B40F080509063012082F8340010BD30
:104700006C20805AC0F3803001F8190F6C20805A59
:10471000C0F3C61048706C20805C00F07F00887089
:10472000106FC00FC870106FC0F341700871106F28
:10473000C0F382604871106FC0F383508871106FAE
:10474000C0F34050C87100200872106FC0F30040E1
:1047500048727020805AC0F3C03088727020805A2E
:10476000C0F38030C8727020805AC0F340300873A4
:104770007020805AC0F3003048737020805AC0F314
:10478000812088737020805AC0F30120C873702084
:10479000805CC0F346000874012048741939002079
:1047A000ADE70000FF05400010B504460CB901203C
:1047B00010BD94F8340020B900202077204600F086
:1047C00067F8032084F83400204600F00BF808B1A5
:1047D0000120EDE70020A0632063012084F834006D
:1047E0000020E5E770B58AB00446002004900590EB
:1047F0000690079008907620099007A807C88DE8D2
:104800000700206804A90EC900F0B6FF064616B1DD
:1048100001200AB070BD00201B490860206800F02C
:10482000C5FF01201849A039C1F8A000204601F0B9
:1048300011FC05463DB1012084F83400A06B2843EB
:10484000A0630120E5E7204601F083FB05463DB16A
:10485000012084F83400A06B2843A0630120D8E72E
:104860004FF40071206800F0FDFF05464DB1074888
:1048700021688863A06B2843A063012084F834007A
:10488000C7E70020C5E70000A0802542FF054000E3
:1048900010B586B00446142101A8FBF7A9FE5449BF
:1048A000206888427ED100BF0020009051480068F7
:1048B00040F400604F4908600846006800F400605A
:1048C000009000BF00BF00BF00200090494814388E
:1048D000006840F004004749143908600846006841
:1048E00000F00400009000BF00BF00BF0020009057
:1048F0000846006840F0080008600846006800F0BC
:104900000800009000BF00BF4FF4F8500190022053
:10491000029000200390032004900C20059001A930
:104920003548FEF719FF0420019002200290002074
:104930000390032004900C20059001A92F48FEF756
:104940000BFF2F482F4908604FF00060486000219E
:104950002C488160C1604FF4806101618900416130
:10496000890081612021C161C90201620421416283
:10497000032181624FF40001C16289100163FEF7D7
:10498000EFFA08B1FDF7CEFF00BF1E482064846334
:1049900000BF1B4848301C4908604FF00060486069
:1049A000402100E021E0184881600021C1604FF4FF
:1049B0008061016189004161890081612021C161BB
:1049C000C902016204214162032181624FF40001A6
:1049D000C16289100163FEF7C3FA08B1FDF7A2FFB7
:1049E00000BF0948E063846300BF06B010BD00004B
:1049F000002C01404438024000080240000C0240F4
:104A000058640240EC8800204C89002070477047B1
:104A100010B504460CB9012010BD94F83D0028B92A
:104A2000002084F83C00204600F025F8022084F89D
:104A30003D00211D206801F013FE012084F846008E
:104A400000BF84F83E0001213F2001554020015560
:104A50004120015500BF00BF012084F842004320DF
:104A60000155442001554520015500BF012084F81F
:104A70003D000020D0E77047014691F83D00012835
:104A800001D001207047022081F83D000868C0680D
:104A900040F001000B68D8601A4B086898421BD0A0
:104AA0000868B0F1804F17D0174B0868984213D0B0
:104AB000164B086898420FD0154B086898420BD0E7
:104AC000144B0868984207D0134B0868984203D0EB
:104AD000124B086898420CD10868806800F0070201
:104AE000062A0CD00868006840F001000B681860C6
:104AF00005E00868006840F001000B6818600020BD
:104B0000C0E7000000000140000400400008004031
:104B1000000C00400004014000400140001800402B
:104B2000704710B5044620680069C0F34000D8B152
:104B30002068C068C0F34000B0B16FF00200216887
:104B40000861012020772068806900F0030018B117
:104B50002046FFF7E5FF05E0204600F0ADF82046CF
:104B600000F0ABF80020207720680069C0F38000D7
:104B7000D8B12068C068C0F38000B0B16FF0040005
:104B800021680861022020772068806900F4407065
:104B900018B12046FFF7C4FF05E0204600F08CF86E
:104BA000204600F08AF80020207720680069C0F3D2
:104BB000C000D8B12068C068C0F3C000B0B16FF0C9
:104BC000080021680861042020772068C06900F08F
:104BD000030018B12046FFF7A3FF05E0204600F0D0
:104BE0006BF8204600F069F8002020772068006903
:104BF000C0F30010D8B12068C068C0F30010B0B195
:104C00006FF0100021680861082020772068C069D3
:104C100000F4407018B12046FFF782FF05E02046FF
:104C200000F04AF8204600F048F80020207720687D
:104C3000006900F0010058B12068C06800F0010070
:104C400030B16FF0010021680861204600F036F8AD
:104C500020680069C0F3C01058B12068C068C0F374
:104C6000C01030B16FF08000216808612046FFF766
:104C7000CDFE20680069C0F3801058B12068C0687C
:104C8000C0F3801030B16FF0400021680861204609
:104C900000F020F820680069C0F3401058B1206887
:104CA000C068C0F3401030B16FF020002168086187
:104CB0002046FFF7ACFE10BD7047704710B50446A4
:104CC00003492068884201D1FEF776FF10BD00003D
:104CD00000200040704700BFFEE7000010B5002232
:104CE00010210846FBF7C4FE044908600022114663
:104CF0000348FCF7B3FC0349086010BD4086002060
:104D00003967000844860020024602B111B96FF0ED
:104D1000040070470748807A00F0010038B9054860
:104D2000026041600020034B18810120987200202E
:104D3000EFE70000AC89002001460D48006840F410
:104D400080400B4A10600B48006840F40000094A9C
:104D500010600948094A1060094800220260426058
:104D6000826001600120064A107100207047000037
:104D7000443802400438014000800240CC870020C3
:104D8000B889002010B50D480D490860052048601D
:104D900000210B488160C1604FF400210161C9000E
:104DA00041610021017641768176C17601774177B4
:104DB000FDF75AFE08B1FDF7B5FD10BD00640040D7
:104DC0007C87002010B50D480D490860052048601B
:104DD00000210B488160C1604FF400210161C900CE
:104DE00041610021017641768176C1760177417774
:104DF000FDF73AFE08B1FDF795FD10BD00680040D3
:104E0000A487002008B500BF002000900E4800686D
:104E100040F480000C4908600846006800F48000F7
:104E2000009000BF00BF002211463B20FEF782FF2A
:104E30003B20FEF76BFF002211464520FEF77AFF6C
:104E40004520FEF763FF08BD3038024010B5194811
:104E50001949086000201949087080204870E12035
:104E600088700020C87008714871134841610121A1
:104E700001620020104948604FF480410E48816073
:104E8000C910C1600121018281610021C1614FF41B
:104E900000010162FEF7EEF808B1FDF743FD084896
:104EA00000210160818000200549088048808880B9
:104EB00010BD000000800240CC8700204E860020FC
:104EC0004886002000B587B0142102A8FBF790FBAC
:104ED00000BF002001904248006840F08000404937
:104EE00008600846006800F08000019000BF00BF25
:104EF00000BF002001900846006840F004000860F0
:104F00000846006800F00400019000BF00BF00BF29
:104F1000002001900846006840F001000860084643
:104F2000006800F00100019000BF00BF00BF00203A
:104F300001900846006840F00200086008460068DA
:104F400000F00200019000BF00BF00BF00200190F0
:104F50000846006840F0100008600846006800F04D
:104F60001000019000BF00BF00BF00200190084664
:104F7000006840F0080008600846006800F008007B
:104F8000019000BF00BF002201211648FEF7DCFCA3
:104F900000224FF680711448FEF7D6FC01200290E3
:104FA000039000200490059002A90E48FEF7D4FB60
:104FB0000620029000200390049002A90948FEF701
:104FC000CBFB4FF6807002900120039000200490EC
:104FD000059002A90448FEF7BFFB07B000BD000022
:104FE00030380240000402400010024010B50B4867
:104FF0000B4908600B484860002109488160C16086
:105000004FF480410161002141618161C161016210
:10501000FEF7A6FC08B1FDF785FC10BD005400406A
:1050200014880020A086010010B50D480D490860C5
:105030000020486000210B488160C160016141612E
:105040008161FFF7B1FB08B1FDF76CFC4FF4006123
:105050000448FFF761FA08B1FDF764FC10BD0000D9
:10506000002C01406888002000BFFEE700BFFEE77B
:105070002DE9F04105460E4617461948007900F023
:10508000020018B94FF0FF30BDE8F0811548006903
:1050900000F01C0848F0010040EAC52040EA8610F4
:1050A00010490861FEF756FC044600BF0D48006930
:1050B00000F0010000B904E0FEF74CFC001B0228E0
:1050C000F4D300BF0748006900F0010020B905488B
:1050D000406938800020D7E76FF00200D4E7000075
:1050E000B8890020008002402DE9F04105460E46B7
:1050F00017461848007900F0020018B94FF0FF3049
:10510000BDE8F08114484761006900F01C0848F0D0
:10511000030040EAC52040EA86100F490861FEF707
:1051200019FC044600BF0C48006900F0010000B9FA
:1051300004E0FEF70FFC001B0228F4D300BF064872
:10514000006900F0010008B90020D9E76FF0020003
:10515000D6E70000B88900200080024038B5044638
:1051600024B1012C5FD0022C5CD117E02F48807A4B
:1051700000F0010010B94FF0FF3038BD2B48807AA5
:1051800020F00200294988724FF400600881084627
:1051900002890021436801209847EEE72348807A7E
:1051A00000F0010010B94FF0FF30E6E71F48807AA9
:1051B00000F0020008B10020DFE71C486A46022127
:1051C000036801209847BDF80000B0F5005F02D0E9
:1051D0006FF00300D1E715486A46032103680120F8
:1051E0009847BDF800004FF6F071084045F6904131
:1051F000884202D06FF00300BFE700200B4908810E
:1052000008460289002143680120984710B14FF0F9
:10521000FF30B2E70548807A40F002000349887207
:105220000020AAE700BF6FF00300A6E7AC890020CA
:10523000F8B5064636B1022E04D0012E02D06FF02A
:105240000300F8BD26B1012E51D0022E4ED151E0FF
:1052500000BF002000905F48006840F000705D498A
:1052600008600846006800F00070009000BF00BFB2
:1052700000BF002000900846006840F08060086091
:105280000846006800F08060009000BF00BF00BFCB
:10529000002000900846006840F000600860084662
:1052A000006800F00060009000BF00BF494820384F
:1052B000006840F0007047492039086000BF00BF17
:1052C00000BF00BF43482038006820F0007041490B
:1052D000203908604048006810B13F48FEF71AF8CE
:1052E0003E48007920F006003C4908716FE06FF0FD
:1052F0000300A6E73948007900F0010010B94FF02B
:10530000FF309EE73548007900F0020000B15EE012
:105310003148FEF733F82F482038006840F000701D
:105320002C492039086000BF00BF00BF00BF2948DA
:105330002038006820F00070264920390860FEF708
:105340002FFE04462648844201D3102516E0254846
:10535000844201D3042511E02348844201D300256F
:105360000CE02248844201D30C2507E02048844207
:1053700001D3082502E04FF0FF3062E71D480561C8
:105380004FF420401B49086020204860802088613D
:105390000020086448648864C864086548658865B6
:1053A000C8650846C06B40F40270C8634FF4031030
:1053B0001149086011480F49C1F80C010020074944
:1053C00088600846007940F00200087100BF00BF05
:1053D000002036E730380240CC870020B889002012
:1053E00080D1F00800E1F50500879303C00E160296
:1053F00040787D0100800240108102406000020080
:1054000070B5024623488079234D05EB4010836830
:105410000C461AB911B16FF0040070BD1D48007937
:1054200000F0020010B94FF0FF30F6E706E0186810
:105430001060586850600832083308390729F6D8D8
:1054400004E018881080921C9B1C891E0129F8D842
:1054500009B1187810704FF000400E4DAD790E4E26
:1054600006EB451528600B488079401C094DA87152
:1054700028468079042801D10020A8710748406996
:1054800000F0800020B18020044D68610020A860F9
:105490002046C2E7B8890020C4890020009002405D
:1054A00010B5024600230868506248689062D1E94E
:1054B000020420430C6920434C6920430343D06A13
:1054C00020F0F7001843D062002010BD01460869A3
:1054D000C0B270470146086800F0030070470246FA
:1054E00002F1140043181868704700002DE9F041DC
:1054F000002400269E48056840F20F20284000281E
:1055000046D005F0010090B146F001069948808B25
:1055100000F0100048B19748406820F00400001DDA
:105520009449486044F0100401E045F0400505F05E
:10553000020050B146F002068E48406820F020007C
:1055400020308C49486044F0800405F0040050B1DC
:1055500046F004068748406820F00200801C854918
:10556000486044F0080405F0080050B146F0080611
:105570008048406820F0100010307E49486044F0B8
:10558000400405F4007018B146F4007644F080043D
:1055900005F04000002851D046F0400644F00404D5
:1055A0007448806818B37348808B00F00800C0B15D
:1055B0006F48143800686F49896808606C4818386B
:1055C00000686C498968486069481C380068694906
:1055D0008968886066482038006866498968C860BC
:1055E00005E06348203800686249896808606148BE
:1055F000808B00F0200008B35E48808B20F02000F4
:105600005C4988830846808B00F0800020B1084602
:10561000406940F4807048615648806954490C39AB
:1056200008605448406940F00100091D0860514875
:10563000406820F0080008304E49486005F08000BE
:1056400018B146F0800644F0040405F4807070B18F
:1056500046F480764748808B00F0400038B94448D3
:105660000830006840F4806041490831086005F462
:10567000806098B146F480663E48808B00F0400020
:1056800020B93C48006908B944F020043848083083
:10569000006820F4806036490831086005F4800015
:1056A00058B146F4800632480830006800F48000A3
:1056B0002F490831086044F480742D48001D0660AD
:1056C000002C53D0E02704EA0700E0B129484068E5
:1056D00020F00800274948600846006898B104F0A7
:1056E000800020B108460168802088470BE004F064
:1056F000400020B11F4801684020884703E01D4852
:105700000168202088471C2704EA0700E0B11948F7
:10571000406820F00100174948600846006898B1C9
:1057200004F0100020B108460168102088470BE003
:1057300004F0080020B10F4801680820884703E002
:105740000C4801680420884704F4807070B109484F
:10575000406820F040004030064948600846006834
:1057600020B1084601684FF480708847BDE8F08199
:10577000342C014084AE00200FB410B50446002143
:10578000DDE903021043059A1043069A1043079A75
:105790001043089A10430143606847F6FF62904344
:1057A00008436060002010BC5DF814FB10B504468F
:1057B000032020600220FDF749FC002010BD0146B7
:1057C000D1F88000704710B5024600230868906049
:1057D000D1E901042043CC6820430C6920430343F2
:1057E000D0686FF30B001843D060002010BD70B577
:1057F00086B005460C460194372002904020039065
:10580000002004904FF48060059001A92846FFF71E
:10581000DAFF41F288323721284600F033F9064694
:10582000304606B070BD000070B586B005460C4627
:105830000B48204301902920029040200390002033
:1058400004904FF48060059001A92846FFF7BBFF44
:10585000284600F01FFA0646304606B070BD00002C
:105860000000108070B586B005460C4601941020EB
:10587000029040200390002004904FF48060059037
:1058800001A92846FFF79FFF41F2883210212846E0
:1058900000F0F8F80646304606B070BD70B586B028
:1058A00005460C46019406200290402003900020FB
:1058B00004904FF48060059001A92846FFF783FF0C
:1058C00041F288320621284600F0DCF806463046D0
:1058D00006B070BD30B585B0044600200090019040
:1058E000029003904FF48060049069462046FFF7D1
:1058F0006AFF204600F0A6F80546284605B030BDF0
:1059000030B585B004464FF4D57000900820019062
:1059100040200290002003904FF48060049069467C
:105920002046FFF750FF204600F03CFA0546284687
:1059300005B030BDF0B585B0064614461D4600944E
:105940000720019040200290002003904FF48060D7
:10595000049069463046FFF736FF41F2883207214E
:10596000304600F08FF80746384605B0F0BD30B538
:1059700085B004460020009002200190C0200290D3
:10598000002003904FF48060049069462046FFF7A2
:105990001AFF204600F04CF90546284605B030BDF8
:1059A00070B586B005460C46019409200290C020CF
:1059B0000390002004904FF48060059001A92846D0
:1059C000FFF701FF284600F033F90646304606B0DF
:1059D00070BD30B585B004460020009033200190A2
:1059E00040200290002003904FF4806004906946AC
:1059F0002046FFF7E8FE41F288323321204600F0CE
:105A000041F80546284605B030BD70B586B005465C
:105A10000C460020019003200290402003900020BB
:105A200004904FF48060059001A92846FFF7CBFE53
:105A300022460321284600F059F90646304606B0B2
:105A400070BD000001460E480068C0084FF47A732C
:105A5000B0FBF3F041F2883300FB03F200BF101EED
:105A6000A2F1010202D14FF000407047486B00F0F4
:105A700080000028F3D0C52088630020F5E70000EF
:105A8000688600202DE9F04305460F46904666489B
:105A90000068C0084FF47A71B0FBF1F000FB08F920
:105AA00000BFB9F10000A9F1010903D14FF0004096
:105AB000BDE8F0836E6B06F045000028F1D006F4D7
:105AC00000600028EDD1686B00F0040010B10420E4
:105AD000A863EDE7686B00F0010010B10120A86336
