:020000040800F2
:1000000068F4002071020008615E000803530008D4
:10001000455E0008A924000841780008000000009F
:10002000000000000000000000000000B102000815
:10003000EF280008000000004B0300085B030008E5
:100040008B0200088B0200088B0200088B0200085C
:100050008B0200088B0200088B0200088B0200084C
:100060008B0200088B0200088B0200088B0200083C
:100070008B0200088B0200088B0200088B0200082C
:100080008B0200088B0200088B0200088B0200081C
:100090008B0200088B0200088B0200088B0200080C
:1000A0008B0200088B0200088B0200088B020008FC
:1000B0008B0200088B0200088B0200088B020008EC
:1000C0008B0200088B0200088B0200088B020008DC
:1000D0008B020008097800088B0200088B020008D8
:1000E0008B0200088B0200088B0200088B020008BC
:1000F0008B020008E17600088B0200088B020008E2
:100100008B020008FD6300088B0200088B020008C8
:100110008B0200088B0200088B0200088B0200088B
:100120008B0200088B0200088B020008F1270008F0
:100130008B020008F12800088B0200088B020008DF
:100140008B0200088B0200088B0200088B0200085B
:100150008B020008012800088B0200088B020008AF
:100160008B0200088B0200088B0200088B0200083B
:100170008B0200088B0200088B02000800000000C0
:100180008B0200088B02000800F002F800F05CF817
:100190000AA090E8000C82448344AAF10107DA45E2
:1001A00001D100F051F8AFF2090EBAE80F0013F0D8
:1001B000010F18BFFB1A43F00103184718B40000E1
:1001C00038B400000A444FF0000C10F8013B13F063
:1001D000070408BF10F8014B1D1108BF10F8015BA0
:1001E000641E05D010F8016B641E01F8016BF9D193
:1001F00013F0080F1EBF10F8014BAD1C0C1B09D1EA
:100200006D1E58BF01F801CBFAD505E014F8016B5B
:1002100001F8016B6D1EF9D59142D6D370470000ED
:100220000023002400250026103A28BF78C1FBD8FF
:10023000520728BF30C148BF0B6070471FB50AF096
:100240003BFF1FBD10B510BD00F000FA114603B40E
:1002500007F0B9FB03BCFFF7F1FF08F0E1F900F08C
:100260001AFA03B4FFF7EEFF03BC00F01DFA00001A
:100270000948804709480047FEE7FEE7FEE7FEE73A
:10028000FEE7FEE7FEE7FEE7FEE7FEE70448054976
:10029000054A064B70470000CD760008890100082A
:1002A00068EE002068F4002068F0002068F000206C
:1002B0001EF0040F0CBFEFF30880EFF30980816993
:1002C00011F8021C002932D101B590E80F10E04767
:1002D000BDE800508CE80300244B93E806009142EF
:1002E00008BF70471A6041B91EF0100F10D1204BA3
:1002F000186820F0010018600AE02CE9F00F1EF0E9
:10030000100F08BF2CED108A81F822E0C1F838C028
:10031000906B92F8221061F0FF0E1EF0100F08BFD4
:10032000B0EC108AB0E8F00F80F309887047114AEA
:1003300013689942FAD801B552F821C00FC8E047B6
:10034000BDE80050CCF80000704701B500F0ACFDEE
:10035000BDE80140EFF3098CBEE701B501F020F8DC
:10036000BDE80140EFF3098CB6E700BF5C870020D1
:1003700034EF00E028B1000853EA020C00F0698075
:100380002DE9F04B4FF00006002B1FBFB3FA83F5A9
:1003900003FA05F424FA05F65E4012BF1643B2FADA
:1003A00082F502FA05F4C5F120051EBF22FA05FC0C
:1003B00044EA0C04203556EA044C4FEA144418BFB2
:1003C000641C4FF000084FF00009904271EB030CE1
:1003D00039D3002919BFB1FA81F701FA07F6B0FA4B
:1003E00080F700FA07F6C7F120071EBF20FA07FCC6
:1003F00046EA0C062037B6FBF4FCA7EB0507103FD6
:1004000007F01F0BCBF120060CFA0BFB2CFA06F6BB
:1004100044BFB3460026202FA4BF5E464FF0000B1A
:100420005BEA060C08BF4FF0010B19EB0B09ABFBA5
:10043000027C48EB0608C01B06FB02CC0BFB03CC7E
:1004400071EB0C01C1E70B46024641464846BDE848
:10045000F08B13B54FF000004FF00001AFF30080B8
:10046000BDE81C40704740EA010310B59B070FD15F
:10047000042A0DD310C808C9121F9C42F8D020BA14
:1004800019BA884201D9012010BD4FF0FF3010BDCC
:100490001AB1D30703D0521C07E0002010BD10F89A
:1004A000013B11F8014B1B1B07D110F8013B11F860
:1004B000014B1B1B01D1921EF1D1184610BD032A1E
:1004C00040F2308010F0030C00F0158011F8013B71
:1004D000BCF1020F624498BF11F801CB00F8013B58
:1004E00038BF11F8013BA2F1040298BF00F801CB1C
:1004F00038BF00F8013B11F0030300F02580083AF3
:10050000C0F0088051F8043B083A51F804CBA0E849
:100510000810F5E7121D5CBF51F8043B40F8043B9E
:10052000AFF30080D20724BF11F8013B11F801CBD3
:1005300048BF11F8012B24BF00F8013B00F801CBA4
:1005400048BF00F8012B704710B5203AC0F00B806F
:10055000B1E81850203AA0E81850B1E81850A0E8C7
:100560001850BFF4F5AF5FEA027C24BFB1E8185021
:10057000A0E8185044BF18C918C0BDE810405FEA91
:10058000827C24BF51F8043B40F8043B08BF70470D
:10059000D20728BF31F8023B48BF11F8012B28BF12
:1005A00020F8023B48BF00F8012B70474FF00002D3
:1005B0000429C0F0128010F0030C00F01B80CCF175
:1005C000040CBCF1020F18BF00F8012BA8BF20F8E3
:1005D000022BA1EB0C0100F00DB85FEAC17C24BF37
:1005E00000F8012B00F8012B48BF00F8012B7047E1
:1005F0004FF0000200B5134694469646203922BFBC
:10060000A0E80C50A0E80C50B1F12001BFF4F7AF06
:10061000090728BFA0E80C5048BF0CC05DF804EBE8
:10062000890028BF40F8042B08BF704748BF20F856
:10063000022B11F0804F18BF00F8012B7047704754
:1006400070477047004870475CE900207546FFF727
:10065000F9FFAE4605006946534620F0070085467F
:1006600018B020B5FFF712FEBDE820404FF000069D
:100670004FF000074FF000084FF0000B21F007018A
:10068000AC46ACE8C009ACE8C009ACE8C009ACE8CD
:10069000C0098D46704710B50446AFF30080204670
:1006A000BDE81040FFF7DDBD01491820ABBEFEE7F5
:1006B00026000200704710B500F1280151E8002F14
:1006C00012B9BFF32F8F04E0531E41E8003404B188
:1006D000F4E772B12C300121006850B1821CD2E8DD
:1006E0004F3FC2E8441F04B1F9E71A0602D00830B0
:1006F000F2E7002010BD70B5024652F8305F4DB1F0
:10070000CC7800235DB12E46ED78A5420DD27568F8
:100710003346F7E70023C162C1E901330DE000244D
:10072000C1E9014300F12C0403E0C1E9016306F1D2
:1007300008042160002B18BF1A1D1160283050E8F2
:10074000001F4A1C40E8002303B1F8E770BDD1E95F
:10075000012312B193608B6800E0C362191D002B66
:1007600008BF00F130010A607047000001480068CE
:10077000704700BF10E000E007480178012905D16B
:1007800006494FF080620A60002101700448016848
:1007900041F001010160704764EE002004ED00E0CB
:1007A00010E000E04FF0FF307047000040B10B490F
:1007B0000968B1FBF0F0411E0020B0EB116F02D0D0
:1007C0004FF0FF307047064AFF231370054A062397
:1007D00013605160044908709060704714870020CE
:1007E00023ED00E010E000E064EE00202168D4E991
:1007F0000223204600F08DBA6FF0050070470021FB
:1008000000220646002700F0B3BD6FF005007047D8
:100810006FF0030010BD4DF808ED204600F018FD04
:1008200020465DF808EB00F037BC04460078F1285C
:100830007047B0B500F10C01C289D1E85F3F9A4220
:1008400002D8BFF32F8F04E05C1CC1E8554F05B1FF
:10085000F3E7C28999B20020914238BF0120B0BDB0
:1008600010B5930712D400F12803D00715D153E82F
:10087000000F084203D1BFF32F8F002005E020EACC
:10088000010243E8002404B1F1E710BD806AD207F9
:1008900000EA010312D1A3B912E053E8000F00EA05
:1008A00001028A4203D0BFF32F8F002005E020EA27
:1008B000010243E8002404B1EFE710BD8B4200D0F1
:1008C000002010BDB0B5104A0023443215462C68F4
:1008D0003CB12569A94209D3491B04F10C05234603
:1008E000F5E700240161C0E9023406E00161C0E9D6
:1008F0000234A0602569691A2161002B18BF03F139
:100900000C021060B0BD00BF48870020C16829B14B
:10091000826803698A600A691A440A618068044A25
:1009200000F10C03002808BF02F14403196070476E
:1009300048870020EFF3058129B9EFF3108111B941
:10094000EFF3118111B16FF005007047DFF804C0BB
:1009500000DF704735170008EFF3058048B9EFF363
:10096000108030B9EFF3118018B9EFF31480C0078D
:1009700002D10448007A7047DFF804C000DF7047F6
:100980004D17000848870020EFF3058028B9EFF3E2
:10099000108010B9EFF3118010B103484068704720
:1009A000DFF808C000DF70471CB5000859170008C1
:1009B00080B500F0F9F8EFF3058028B9EFF3108067
:1009C00010B9EFF3118010B16FF0050080BDDFF8B2
:1009D00008C000DF80BD00BF65170008EFF3058089
:1009E00028B9EFF3108010B9EFF3118008B1FFF7C9
:1009F0000CBFDFF808C000DF704700BF65180008B3
:100A0000F8B50546EFF3058014460E4628B9EFF316
:100A1000108010B9EFF31180F0B1D5B12878FA2821
:100A200017D16FF00300EEB1E3B92846FFF743FE9C
:100A3000C8B16A6A074600F10C013046FFF73FFD76
:100A40000CB1F87820703846FD6000F073FA002091
:100A5000F8BD6FF00300F8BD2846DFF810C031463E
:100A6000224600DFF8BD6FF00200F8BDED18000867
:100A7000EFF305832BB9EFF3108313B9EFF3118371
:100A80000BB100207047DFF808C000DF704700BFDF
:100A9000C51900082DE9F0410646EFF305809046A0
:100AA0000D4628B9EFF3108010B9EFF3118018B399
:100AB000EEB13078FA281AD16FF00307CDB1C3B97F
:100AC00006F10C0000F0E3F8F0B1726A04460C3055
:100AD0002946FFF7F4FCF9200027C4E9015684F801
:100AE000038020702046A77000F024FA01E06FF028
:100AF00003073846BDE8F0813046DFF814C02946C8
:100B0000424600DFBDE8F0816FF00207F1E700BF69
:100B1000DD1A0008EFF305822AB9EFF3108212B94B
:100B2000EFF3118212B16FF005007047DFF804C0D7
:100B300000DF7047911B0008EFF3058129B9EFF33F
:100B4000108111B9EFF3118111B16FF005007047F9
:100B5000DFF804C000DF7047211C0008EFF30581B7
:100B600029B9EFF3108111B9EFF3118109B1002018
:100B70007047DFF808C000DF704700BFD11C0008D5
:100B8000EFF3058129B9EFF3108111B9EFF311816A
:100B900011B16FF005007047DFF804C000DF704747
:100BA000391D000809F04DBF7047F0B5A8B100230A
:100BB00079B3032A2DD803460F3153F8085F21F08B
:100BC00007012C46EE1A5D6825F00307F61B8E42DE
:100BD00005D225682346002DF3D1002319E0D0E982
:100BE00000760E444660384450F8047CB74202D286
:100BF000083846605D6845B125F003001143C450D4
:100C0000184418600346416002E041EA020058605F
:100C100008331846F0BDB0B560B159B100F1080411
:100C2000A1F108020023944206D0254624682B46F1
:100C3000002CF8D10020B0BD51F8045C446825F0C8
:100C40000305641B446013B11068186002E00020C3
:100C500041F8040C0120B0BD18B10246084340071A
:100C600001D000207047002018290FD310B58B1831
:100C7000A3F10804946043F8080C10249368C2E9B7
:100C800000145C60D0600120BDE81040704710B5D2
:100C9000002817D0014600F1140252E8000F10B9E5
:100CA000BFF32F8F04E0036842E8003404B1F4E797
:100CB00040B1043151E8002F531C41E8003404B125
:100CC000F8E710BD002010BDB0B500281ED0C268E6
:100CD0008A421BD802698A4218D900F114021368AB
:100CE0000B60BFF35F8F52E8003F0C689C42F6D167
:100CF00042E8001505B1F2E7043050E8001F4A1E33
:100D000040E8002303B1F8E70020B0BD6FF0030016
:100D1000B0BDB0B598B191B18AB1044600209BB185
:100D2000C4E9001004F1080002FB013563612CC026
:100D3000481E30B19918013819600B46F9E70020B8
:100D4000B0BD002018600120B0BDF8B50446807821
:100D500048B3E56821462846FFF7F9FC002005F175
:100D60000C06214620703046FFF7AEFFA868C8B1D8
:100D70003046FFF78CFFA8B10446284600F049FA38
:100D8000FFF73DFD304600F0A5FA81686A6A064625
:100D900004F10C00FFF793FBF920A7702070F068B6
:100DA000E07021E0F8BDA568A868E8B14078832824
:100DB0001AD1284600F02DFAFFF721FD304600F049
:100DC00089FA064680686A6A04F10C01FFF777FB2E
:100DD000F06808B1E1780170277005F10C00214638
:100DE000BDE8F840FFF770BF28462146BDE8F8404F
:100DF000FFF781BC80B507480821D0E91A2000F030
:100E0000E1FD0549C8640021002808BF4FF0FF310B
:100E1000084680BD1CB50008488700202DE9F04138
:100E2000044600274FF00108D4B125466469E878EC
:100E30000007F9D5A8682F760028F5D0284600F0DD
:100E4000E8F900210022064600F092FAF06AC5E9AE
:100E50000367686100B1056185F81880F562E3E712
:100E6000BDE8F081B0B5C278920715D5C068C36AF5
:100E700090F821209C688C4208BF8C682CB194F9B2
:100E8000204055B2AC42C8BFE2B25B69002BF1D141
:100E900090F82010914200D1B0BD80F82020BDE82C
:100EA000B04000F0E5B9000070B5214C04F15605E2
:100EB00004F15A06B4F85400D5E85F1F11B9BFF326
:100EC0002F8F04E04A1EC5E8532F03B1F4E709044D
:100ED00029D0D6E85F1F4A1C904200D80022C6E8FD
:100EE000532F03B1F5E788B2E16D51F82000D0B17E
:100EF0000178F1390829DDD8DFE801F00605090598
:100F0000050C0F051200D5E7216E8847D2E7616E08
:100F10008847CFE7A16E8847CCE7E16E8847C9E7ED
:100F2000216F8847C6E70020BDE8704000F00CB98B
:100F30004887002070B50146194800F15603B0F803
:100F40005420D3E85F4FA24202D8BFF32F8F04E0B2
:100F5000651CC3E8565F06B1F3E7A3B2934214D20F
:100F600000F15803D3E85F4F651CAA4200D8002562
:100F7000C3E8565F06B1F5E7A2B2C36D43F822108D
:100F8000417A39B10121817270BD0220BDE8704003
:100F9000FFF708BE03484FF08051016070BD00BFED
:100FA0004887002004ED00E010B58168B1B100F180
:100FB0000C01D1E85F2F12B9BFF32F8F04E0531E4D
:100FC000C1E8543F04B1F4E7110407D000F021F95F
:100FD00000210022BDE8104000F0CAB910BD000099
:100FE00010B5012190F9203041700A491C310A46A0
:100FF000896841B191F920409C42F8DCC0E90212B5
:1010000090600C3104E00021C0E9021202F10801F5
:10101000086010BD48870020B0B54A1C0DD01D4A9D
:1010200000232C3215462C68E4B1E569A94221D38E
:10103000491B04F110052346F5E71649002301F189
:10104000300214461946236803F11004002BF9D12D
:101050004FF0FF33C3610023C0E90431C1B101F196
:10106000100215E0C161C0E90443002B18BF03F171
:1010700010020DE0002BC0E90443C16118BF03F169
:10108000100210602CB1E269511A04F11402E161FE
:101090001060B0BD48870020C2690169531C0AD0A6
:1010A00021B143694B61CB691A44CA6142693AB9BB
:1010B000084AD16207E009B142694A6142692AB12E
:1010C0000023116143610021C1617047014A11632E
:1010D000F9E700BF4887002070B5114DEC6A1CB1DC
:1010E000E0690138E06100D070BD042660781338F3
:1010F000B6EB301F05D1204600F0B4F82146FFF7CB
:10110000B1FE204600F0A4F8204600F0D9F824698A
:1011100024B1E0690028E9D000206061EC6270BD74
:1011200048870020C178C90708BF00F037B8002100
:10113000C1600421417003494A6B826002B1D060F2
:10114000486370474887002070B5134E05467469A0
:10115000307A65B1022805D194F9200095F9201064
:10116000814211DC2846BDE8704000F0A9B8022891
:1011700010D1756A75B194F9200095F9201081425B
:1011800008DD284600F064F82046FFF729FF02201A
:10119000B561687070BD00BF4887002010B5044677
:1011A00000202080A07881070DD5C00605D4104806
:1011B000216B406FFFF72FFD05E00D48216BD0F844
:1011C0008400FFF781FDA078C00708BF10BD084963
:1011D000D1F8880020B12146BDE81040FFF774BD6A
:1011E000D1F880002146BDE81040FFF714BD00BFD4
:1011F0004887002010B50446806918B100210022FC
:1012000000F0B6F86078232802D1A068002181613F
:1012100010BD0146806882688A6002B1D1600021F9
:10122000C160704710B591F920300246806840B126
:1012300090F920409C42F8DAC1E9020291600C303A
:1012400004E00020C1E9020202F10800016010BDC3
:10125000C16831B182688A60826802B1D1600021C0
:10126000C16070470178F12918BF7047C068F9E77D
:10127000B0B50446054625B12878F12802D1ED68BD
:10128000F9E7B0BD2046FFF7E3FF28462146BDE859
:10129000B040FFF7C7BF10B50446407833280DD1E2
:1012A00094F82320616A2046FFF7DAFA30B101464C
:1012B00020460022BDE8104000F05AB810BD0000E2
:1012C00001460120487002481C30FFF7ABBF00BF49
:1012D0004887002090F82210C9064FF0200158BF1F
:1012E0006021806B0844704770B50B4C0B4800219F
:1012F000A26D666E00F0CAFE094DA86246B1B04705
:1013000040B9E96CD4E9172000F0C0FEA86408B128
:10131000012070BD002070BD1CB5000863AA000844
:10132000488700200249886102214170704700BF50
:101330004887002010B50D4C227A022A14D1626A27
:1013400092B1626950701046FFF766FE606A81686C
:10135000616211B104F11C02CA600221A0614170F6
:101360000021C160012010BD002010BD4887002071
:10137000B0B5044690F822001546C0064FF0200094
:1013800058BF6020A26B81502046FFF785FE2046A3
:10139000002DBDE8B04008BFFFF792BFFFF7D4BEF5
:1013A000B0B5FFF7E3F91B4DE8680130E860FFF7DF
:1013B00093FE0020FFF7C8FE286D00B18047296C1E
:1013C00071B1A869EA6B904205D0C269E86322B99D
:1013D000C1610A4601E0C2691AB1511EC16100D063
:1013E000B0BD297A0229FBD16C6A002CF8D090F8A4
:1013F000200094F820108142F2D12046FFF728FF08
:10140000E86BFFF75DFF2046FFF78CFF286CEC636D
:10141000E061B0BD4887002080B5FFF7EBFC10B15C
:101420004FF0FF3080BD024802490165002080BDB9
:10143000488700205914000882B004466D462046B3
:10144000294600224FF0FF33FFF7DAFA0028F6D1E1
:10145000DDE900108847F2E72DE9F041194D6C6C89
:1014600074B320696E694FF001080138206134B30C
:10147000206920BBE06808B1A16881606864E86CFD
:1014800004F1180100220023FFF704FB60B1D5E945
:101490000570214668610320FFF784FB696986EACD
:1014A0000700084308BF0646E078012811BF84F80A
:1014B000018061692046FFF705FA6C6CD7E76E6121
:1014C000BDE8F08148870020EFF305822AB9EFF3E9
:1014D000108212B9EFF31182CAB16FF00302A0B10A
:1014E00099B90178F62910D10C30D0E85F1F11B9F5
:1014F000BFF32F8F04E04A1EC0E8532F03B1F4E777
:101500000022080408BF6FF0020210467047DFF89F
:1015100008C000DF704700BFED1D0008EFF3058134
:1015200029B9EFF3108111B9EFF3118111B16FF007
:1015300005007047DFF804C000DF7047451E000853
:10154000EFF305832BB9EFF3108313B9EFF3118396
:101550000BB100207047DFF808C000DF704700BF04
:10156000A51E000810B50446EFF3058028B9EFF377
:10157000108010B9EFF3118090B15CB12078F6289B
:1015800008D12046FFF755F938B12046FFF7D2FCC5
:10159000002010BD6FF0030010BD6FF0020010BD01
:1015A0002046DFF808C000DF10BD00BF211F000883
:1015B000DFF804C000DFFEE7591F0008EFF30581E4
:1015C00029B9EFF3108111B9EFF3118109B1FFF7D8
:1015D00013B9DFF808C000DF704700BFA51F00087F
:1015E000B0B5EFF305822AB9EFF3108212B9EFF329
:1015F0001182DAB16FF00304B0B1002914D402787B
:10160000F12A11D14278042A02D16FF002040BE0D2
:1016100000F1280252E8003F43EA010442E8004595
:1016200005B1F7E7FFF786FC2046B0BDDFF804C040
:1016300000DFB0BDD91F0008EFF305832BB9EFF32E
:10164000108313B9EFF311830BB1FFF7D5B8DFF8AF
:1016500008C000DF704700BF41200008EFF305839A
:101660002BB9EFF3108313B9EFF311830BB1002003
:101670007047DFF808C000DF704700BF8D2000080A
:10168000EFF305822AB9EFF3108212B9EFF311825A
:101690000AB1FFF7B1B8DFF808C000DF704700BF3C
:1016A00079220008EFF3058129B9EFF3108111B910
:1016B000EFF3118109B1FFF79FB8DFF808C000DF31
:1016C000704700BFC1220008EFF3058028B9EFF38F
:1016D000108010B9EFF3118008B1FFF78DB8DFF873
:1016E00008C000DF704700BF4923000810B5EFF3C2
:1016F00005842CB9EFF3108414B9EFF311840CB105
:10170000002010BDDFF804C000DF10BD81230008F9
:10171000EFF305822AB9EFF3108212B9EFF31182C9
:1017200012B16FF005007047DFF804C000DF7047AA
:10173000F923000830B180B501461320FFF7FAFD08
:10174000013880BD6FF00300704700000148007A47
:10175000704700BF4887002001484068704700BFBD
:101760001CB500082DE9F843DFF8EC8098F8080074
:1017700028B101286CD04FF0FF30BDE8F883374F17
:10178000388AD7E90B41A8F85400D7E90202C8F813
:1017900040002046C8F85C20FFF75EFA08B1C8F8A0
:1017A0008040D7E90541DFF8B890D7E907562046D1
:1017B000C847D8F880100028284618BF2146C8F826
:1017C00074103146C847D8F88010002818BF294641
:1017D000C8F87810D7E909412046C847D8F88010E2
:1017E000002818BF21467C6BC8F87C101CB1FEF79E
:1017F000FDFFC8F88440BC6B1CB1FEF7F7FFC8F8CA
:101800008840FC6B1CB1FEF7F1FFC8F88C403C6CC3
:101810001CB1FEF7EBFFC8F890407C6C1CB1FEF7E2
:10182000E5FFC8F89440BC6C1CB1FEF7DFFFC8F8B8
:101830009840FC6C1CB1FEF7D9FFC8F89C403C6D89
:101840001CB1FEF7D3FFC8F8A040012088F80800BB
:101850000020BDE8F88300BF488700201CB50008C1
:10186000590C0008B0B51D4C207A01281CD1FFF797
:101870003BFDC8B11A48FF211A4D8175817D026870
:1018800081F0FF01C2F30222B1FA81F1C1F120011E
:101890008A4228BF511CFE2202FA01F1C174686815
:1018A0001149FEF783FF10B14FF0FF30B0BDFEF7D6
:1018B00079FF2061FEF760FF04F11C00FFF7A9FC2F
:1018C000FFF730FD2878C0070CBF0320022080F30B
:1018D0001488022020720020B0BD00BF488700207D
:1018E0000CED00E01CB500085B0300082DE9F04199
:1018F00000284AD004460078FA2846D10E4600292E
:1019000043D020461D469046FEF7D5FE002841D024
:10191000074620463946FEF71AFF626A07F10C01B6
:101920003046FEF7CCFDB8F1000F1CBFF87888F800
:10193000000004F10C063946002530463D70FFF7E3
:10194000C3F9A06818B33046FFF7A1F90025F0B13C
:1019500006462046FFF75DFC002101220746FFF7FF
:1019600007FD3846FFF7B6FC8168626A074606F154
:101970000C00FEF7A4FDF9203146B5703070F86810
:10198000F0702046FEF7B7FE01E06FF00305284631
:10199000BDE8F08185B183202946FFF7CBFC40B13B
:1019A000074841692046FFF73DFCEFF30980C0E995
:1019B00002686FF00105EAE76FF00205E7E700BF94
:1019C000488700202DE9F84F48B10D4639B104464B
:1019D000B0FA80F0B5FA85F10844202803D2002639
:1019E0003046BDE8F88F05F10F0020F0030808FB32
:1019F00004F95AB19668D2F800A0D2E904707EB119
:101A0000B107ECD1D1683429E9D30CE04FF0000ADA
:101A100000273049D1F8A00058B1FFF738F90EE09F
:101A2000D1680029DBD157B3B907D8D14845D6D3FF
:101A300027E0D1F8800034210122FFF7B6F80646EE
:101A40004FF0010B67BB5EB3CDF800A0DFF884A0B8
:101A500049460022DAF87C00FFF7A7F8074620B1D4
:101A600038464946FEF7A2FD16E0BBF1000F12D042
:101A7000DAF8A00050B13146FFF726F90BE0002854
:101A8000ADD1002EC5D04FF0000BDBE7DAF88000B7
:101A90003146FFF7C0F80026DDF800A00BF1020B7D
:101AA000002E3FF49DAF0020214642463B4686F87B
:101AB00002B0C6E90950C6E90B00C6E901A0FA2048
:101AC000307006F10C00FFF724F902480249016763
:101AD00086E700BF488700204B0D00082DE9F04144
:101AE00020B305460078FA2820D10E46F1B1A86847
:101AF0001F469046F8B1407883281CD12846FFF74E
:101B000088FB0021012204460027FFF731FC204614
:101B1000FFF7E0FB044680686A6A3146FEF7CFFCB7
:101B2000E06828B180F80080002701E06FF003072B
:101B30003846BDE8F08105F10C00FFF7A8F880B148
:101B40006A6A04460C303146FEF7B9FCF9200027DA
:101B5000214684F8038020702846A770FEF7CBFD4D
:101B6000E6E787B193203946FFF7E4FB40B1074829
:101B700041692846FFF756FBEFF30980C0E9026888
:101B80006FF00107D4E76FF00207D1E74887002024
:101B900070B50446214845694DB32CB32078F5282B
:101BA00022D1207E30B30E46E178CA0702D0E26827
:101BB000AA422BD066B388070AD5E06895F92010B1
:101BC00090F920208A4203DA80F82010FFF750FBBA
:101BD00053203146FFF7AEFB18B120462946FFF7E8
:101BE00021FB6FF0010070BD6FF0030070BD4FF07E
:101BF000FF3070BD0020C4E90350E86A606100B1A5
:101C000004610120EC622076002070BDFF2802D123
:101C10006FF0020070BD0130F5E700BF488700207B
:101C2000B0B520B304460078F52820D1207EC0B39B
:101C30006169E06809B122690A6100F12C02236937
:101C40001546002B18BF03F114052960E1788907B8
:101C500021D590F82110126862B193682BB193F9E5
:101C600020304DB2AB42C8BFD9B21432F3E76FF0A7
:101C70000300B0BD90F820208A420CD080F82010DC
:101C8000FFF7F6FA07E02046FFF7C3FA6FF002010C
:101C90000022FFF76DFBA0680028F4D10020FFF7B9
:101CA00053FAA17800202070C9070DD00749D1F858
:101CB000940018B12146FFF707F804E0D1F880003E
:101CC0002146FEF7A8FF0020B0BD00BF48870020D6
:101CD00070B550B18468D0E900657CB1A10710D11E
:101CE000C16800201C2917D270BD002500261149AB
:101CF000D1F8940038B1FEF7CAFF0AE0C0680028A6
:101D0000F5D0002070BDD1F880001C210122FEF723
:101D10004CFF044658B10120A070F52011216660E7
:101D2000E570207004F10800FEF762FC00E000247A
:101D3000204670BD4887002070B504462A48406997
:101D400070B154B12178F52907D1217E11B1E26833
:101D5000824209D06FF0020404E06FF0030401E056
:101D60004FF0FF34204670BD01392176090601D0BD
:101D70000024F7E7616909B122690A6100F12C02C8
:101D800023691546002B18BF03F114052960E1787B
:101D900089070FD590F8211012684AB193682BB1CA
:101DA00093F920304DB2AB42C8BF19461432F3E765
:101DB00080F82010A06888B12046FFF72AFA002199
:101DC000002205460026FFF7D3FAE86AC4E9035665
:101DD000606100B104610120EC62207600200024E3
:101DE000FFF7B2F9BEE700BF48870020B0B508B3DF
:101DF00004460078F6281DD104F10C00D0E85F2FCE
:101E000012B9BFF32F8F04E0531EC0E8553F05B150
:101E1000F4E710041CBF0020B0BD71B16320FFF7D0
:101E200089FA20B1064841692046FFF7FBF96FF0B7
:101E30000100B0BD6FF00300B0BD6FF00200B0BD97
:101E40004887002010B500B304460078F6281CD15E
:101E5000A06868B12046FFF7DCF96FF002010022AC
:101E6000FFF786FAA0680028F4D10020FFF76CF98C
:101E7000A17800202070C90710D00949D1F8980036
:101E800030B12146FEF720FF07E06FF0030010BDE0
:101E9000D1F880002146FEF7BEFE002010BD00BF35
:101EA0004887002070B50C46002198B30546B1EB79
:101EB000104F2FD1AC4215D84AB19068166870B156
:101EC00081070FD1D2680021102A15D222E0002606
:101ED0001149D1F8980038B1FEF7D9FE0AE0D06870
:101EE0000028F5D0002115E0D1F880001021012252
:101EF000FEF75BFE60B1012100228170F621C581F1
:101F00008481C0E9016201700349044A8A6600E0E5
:101F100000200146084670BD48870020A90F000830
:101F200010B560B10178F62909D1816859B1FFF780
:101F300070F9002101220024FFF71AFA01E06FF086
:101F40000304204610BDFEF774FC0021002808BFE2
:101F50006FF00201084610BDB0B5114D287A022875
:101F60001DD1686AD8B16C69E06AFEF757FF204658
:101F7000FFF740F9686A8168696211B105F11C02D6
:101F8000CA600221A86141700021C160EFF309809D
:101F9000A06369612046BDE8B040FFF7C3B8B0BD9B
:101FA0004887002010B501460A48406960B1002901
:101FB0000DD400F1280252E8000F20EA010342E8A4
:101FC000003404B1F7E710BD4FF0FF3010BDFEF74D
:101FD0001FBC00BF48870020B0B56FF0030460B39A
:101FE00000292AD405460078F12826D168780428EB
:101FF00002D16FF0020420E005F1280050E8002F24
:1020000042EA010440E8004303B1F7E76878332867
:1020100013D195F82320696A2846FEF721FC60B1A8
:10202000014695F823000C4680075CBF686A21EAE8
:10203000000428460122FFF79BF92046B0BD0000AE
:10204000F8B505461048476957B1002D0BD40E4628
:102050001446384629463246FEF702FC30B1F8BD38
:102060004FF0FF30F8BD6FF00300F8BD4CB13320E6
:10207000214687F823607D62FFF75CF96FF001006D
:10208000F8BD6FF00200F8BD488700202DE9FE4F33
:10209000002800F0878005466AB102F110099668B1
:1020A000D2E9007399E81003C6B1B0077AD1D068BD
:1020B000442816D276E04FF0010B4FF018090023A8
:1020C00000244FF000080027664A0293CDE900176C
:1020D000D2F88800A8B1FEF7DAFD18E0D068002831
:1020E00060D124B160075DD1B8F1000F5AD0B9F1C9
:1020F000000F3BD0B9F1010F54DBB9F1380F37DDD8
:1021000050E0D2F8800044210122FEF74EFD064641
:102110004FF0010A0027002C53D1002E51D0BBF103
:10212000000F0DD04F485049D0F88400D1F85480AA
:1021300030B1FEF7ACFD60B104460AF1100A3EE092
:10214000484841460022406FFEF72FFD08B1044683
:1021500035E01FB14FF0000A00242FE04149D1F8CB
:10216000880018B33146FEF7AFFD24E04FF01809A0
:10217000B8F1000F08D05FEA487013D1B8F1480FEA
:1021800010D3B8F1000F0DD4B8FA88F0002E4FEA42
:10219000501B3FF499AFCDE9001702934FF0000AAE
:1021A0000127B8E700263046BDE8FE8FD1F8800051
:1021B0003146FEF730FD00244FF0010A00264AF0B8
:1021C000020A002EEFD00198182186F802A0706054
:1021D0000298F07040F2F110308006F10800FEF72E
:1021E00007FA04EB08010020C6E90C48FD22009F15
:1021F00086F8219086F820904039C6F82300C6F86A
:102200002700C6F82B0086F82F0086F82220C6E9A2
:102210000E151649216014490978490715D4B16B88
:1022200000220D2A03D041F822000132F9E7104ABA
:102230004FF080700F62C8630A48C1E90D250D494F
:1022400001663046FEF780FFADE76FF01001221DFA
:102250004FF0CC3301EB98010029E0D008C20139DE
:10226000FAE700BF488700201CB50008A52E5AE2F7
:10227000B11500089712000810B530B10278F12AA4
:1022800003D1012901DB382903DD6FF00304204667
:1022900010BD4278042A02D16FF00204F7E790F9EA
:1022A00020208A4201D10024F1E780F8211080F833
:1022B0002010FEF7DDFF00200024FEF745FFE6E7D3
:1022C00010B5A0B1FEF7B1FA11D1607800F00F009F
:1022D00001280ED0032810D0022805D11948017A10
:1022E000022901D1406A50B96FF0020010BDFEF71B
:1022F0008FBA2046FEF7ACFF01E0FEF78CFAE06AE9
:10230000FEF78CFD2046FEF775FF6078022811D19C
:102310000C48416A8A68426212B100F11C03D36022
:10232000022281614A700022CA60EFF30981A16331
:10233000426102E00020FEF707FF2046FEF7F2FEB2
:10234000002010BD4887002070B50C4E307A02285E
:1023500011D1746A7CB1756994F8201095F8200049
:10236000814208D12046FEF773FF2846FEF7A8FFFA
:102370000220B4616070002070BD00BF488700205B
:10238000F8B50E46002198B3012E31D81446054603
:102390004BB198681F6870B181070FD1DA680021CE
:1023A000202A15D224E000271249D1F88C0038B138
:1023B000FEF76DFC0AE0D8680028F5D0002117E090
:1023C000D1F8800020210122FEF7EFFB70B101213E
:1023D000002281704FF4F971C670C4610180C0E9B8
:1023E0000172C0E90322C0E9052500E00020014692
:1023F0000846F8BD48870020B0B560B105460078B2
:10240000F22808D10C4631B16878022806D1284656
:10241000FEF77CFA08E06FF00300B0BD0748006DDE
:1024200040B102206C61687028462146FEF74AFAE6
:102430000020B0BD6FF00200B0BD00BF4887002093
:1024400070B504460E46154640F28270844209D1AA
:102450000F48006800F480200D490860284604F009
:10246000DBFF13E040F28670844206D10848006822
:1024700000F400200649086008E0B4F5F16F05D1CA
:102480000348006800F480100149086070BD000036
:102490006C86002010B5034A08214FF4886000F0D4
:1024A00081F810BD8486002000BFFEE78AB000BF1F
:1024B0004FF0FF33002201A90B480068FEF7A0FA95
:1024C000054605B1F4E7079C1C2C00D3F0E707484C
:1024D00050F8240000B9EBE7044A52F8243008AA67
:1024E000059901989847E3E7A48600205C8A0020BC
:1024F000F0B58BB004460D4616464FF0FF31254827
:102500000068FEF707FB244800681C2805D0234814
:102510002149096850F8210030B11E480068FEF7D3
:102520002FFB02200BB0F0BD1C481B49096840F886
:10253000216019480068069000200790012008904B
:102540006001019000200290680103904FF6FF7037
:1025500004900120099000200A900F48007800F0B4
:10256000010010B10120059001E0002005900A480B
:102570000068401C0849086001A9094800F0B2FC45
:10258000074604480068FEF7FBFA0FB90020C9E7C8
:102590000120C7E79C860020A08600205C8A0020DE
:1025A0002C8800202DE9FF4104460D4617460020E7
:1025B0000090019002900390009401953868029079
:1025C0007868039000231A46694608480068FEF7B9
:1025D00061FA06461EB9002004B0BDE8F08116F18C
:1025E000030F01D10420F7E70120F5E7A8860020BA
:1025F0008CB000BF4FF0FF33002208A914480068D8
:10260000FEF7FEF9054605B1F4E7002004900590B9
:102610008DF81C0009980690089802900D4800F06B
:10262000F3FC0446012C02D0022C00D0E2E70CE0BF
:1026300001AB0AAA02A9074800F0A9FB064606B9A1
:1026400004E00220FEF776F900BFF1E700BFD1E712
:10265000A88600202C88002004480068044988428D
:1026600001D1012070470020FCE700006C860020AB
:10267000FFFF2F002DE9F04107460C46574800792F
:1026800000F0020018B94FF0FF30BDE8F081012FD3
:102690000CD0022F0AD0032F08D0042F06D0052F0C
:1026A00004D0062F02D06FF00400EEE7072F5BD2B4
:1026B000DFE807F090045B6F83908D004848006866
:1026C00020F4B84504F0030010B1012806D102E05F
:1026D00045F4006505E045F4804502E06FF0030035
:1026E000D3E700BF04F0040020B1042803D145F46F
:1026F000006503E002E04FF0FF30C6E700BF04F0E2
:10270000100008B145F480553648806920F00876FD
:1027100004F0200018B145F4806546F0007604F01E
:10272000400028B146F4001601202C49C87102E08F
:1027300000202A49C8712B488661294805604068F5
:1027400020F0310804F0800008B948F0200804F4B3
:10275000807008B148F0100804F4007008B148F027
:1027600001081F48C0F8048034E01D48006820F0CC
:1027700008051C48806920F400562CB105F0AEFE17
:1027800045F0080546F40056154805601548866171
:1027900020E01348006820F004051248806920F00A
:1027A00002062CB105F09AFE45F0040546F002063B
:1027B0000B4805600B4886610CE004F0020028B16C
:1027C0000848806940F480100649886102E00448A6
:1027D000C46100BF00BF002057E70000D88A002076
:1027E000008002400090024002464FF0FF307047E8
:1027F00010B5024800F0AAFD10BD00009C89002021
:1028000010B5024800F0A2FD10BD0000FC890020B8
:102810000146087810381823B0FBF3F20848805CB2
:10282000C865032A05D908686FF30900001D88658B
:1028300003E008686FF309008865886D7047000041
:10284000B4B10008014600208A6A8B69CBB932B165
:10285000012A0DD0022A03D0032A10D10EE000BFB6
:10286000CB6A03F08073B3F1807F00D1012007E0D1
:10287000CB6AB3F1C07F00D1012001E000E000BFCE
:1028800034E08B69B3F5005F1AD132B1012A07D069
:10289000022A03D0032A11D10AE000BF01200EE072
:1028A000CB6A03F08073B3F1807F00D1012006E092
:1028B000CB6AB3F1C07F00D1012000E000BF15E07A
:1028C00032B1012A05D0022A04D0032A0CD103E038
:1028D00000BF00BF012008E0CB6A03F08073B3F1B2
:1028E000807F00D1012000E000BF00BF704770472B
:1028F00070B5002410484569104828400E494861C9
:1029000005F0010008B144F0020405F0400008B1F0
:1029100044F001040A48866B06F0080018B1084824
:10292000C06A44F0040434B10648006818B1054890
:1029300001682046884770BD0090024041000100B8
:1029400000800240D88A002030B5034614795579BA
:1029500044EA0520084C0C442064D4782406957879
:1029600044EA0544557844EA0524157844EA05000C
:10297000014C0C44606430BD0080024070B5AEB0C4
:1029800004460E46002526B14FF40061E160C900FF
:10299000A160002011901290139014901590169041
:1029A000E06918B94FF48060179001E0002017909B
:1029B0004FF400701890002019901A901B901C90F2
:1029C0001D9040201E9000201F902090219022906A
:1029D00023902490259026908020279000202890F6
:1029E00029902A902B902C902D9020680568714892
:1029F0000540DDE911010843139908431499084380
:102A0000A16808431599084316990843E1680843EB
:102A10001799084318990843199908431A990843C4
:102A20001B9908430543206805602068056801205C
:102A300000F022FE20680560DDE91C0108431E99B4
:102A400008431F9908432099084321990843229974
:102A5000084323990843216848602068456801209D
:102A600000F00AFE20684560249821688860259857
:102A70002168C860206885694FF641700540DDE92E
:102A8000261040EA014028990843299908432A99C9
:102A900008432B99084305432068856120688569B0
:102AA000012000F0E9FD20688561DDE92C01084383
:102AB0002168C8612068C569012000F0DDFD20683B
:102AC000C561002001904FF000700290002003903B
:102AD0004FF4001004900020059006900790089095
:102AE00004200990C0050A9040120B9080010C90C0
:102AF00040120D9080200E9000200F9010902068C2
:102B000000F5805085692C480540DDE90101084346
:102B10000399084304990843059908430699084313
:102B20000799084308990843099908430543206811
:102B300000F580508561206800F58050856901208E
:102B400000F09AFD206800F580508561DDE90A01FA
:102B500008430C9908430D9908430E9908430F99AF
:102B600040EA81001099084340F40001206800F514
:102B700080500160206800F580500568012000F059
:102B80007BFD206800F580500560A069012809D10F
:102B9000206800F58050C06908490843216801F5A4
:102BA0008051C861002120466269FFF7CDFE2EB03A
:102BB00070BD00000F8120FF233FDEF840000100C0
:102BC00010B540F24643984205D1034B1B6803F40D
:102BD0000013014C236010BD6C86002070B50446C4
:102BE0000E461546B4F5826F0AD10C48006800F411
:102BF00080300A4908600021284604F019FC0CE0E6
:102C0000B4F5846F09D10548006800F40030034929
:102C100008600121284604F00BFC70BD6C86002082
:102C200072B600BFFEE70000014800687047000070
:102C300054B100081CB5002000900E48807A00F0C6
:102C4000020028B10B486A4610210368012098470A
:102C5000BDF80000012121EA5001019861F3010053
:102C60000190BDF800008108019861F38200019095
:102C700001981CBDCC8A002038B50020009008487F
:102C8000807A00F0020028B105486A4601210368F5
:102C900008469847BDF80000C0F38004204638BDC0
:102CA000CC8A0020014611B96FF0040070470C482F
:102CB000007900F0020010B94FF0FF30F6E7094844
:102CC000026C100A48710A710648426C100EC870F6
:102CD000100C8870100A48700A700020E6E70000A7
:102CE000D88A00200080024010488079104A02EB08
:102CF000401001680D48007900F0020008B900207A
:102D0000704701F0004008B10020F9E701F40040ED
:102D100028B901F4007010B101F4807010B94FF0BF
:102D2000FF30EDE7C1F30D40001FE9E7D88A00202E
:102D3000E48A002001464FF0FF30704701464FF013
:102D4000FF30704708B502480068009008BD0000D9
:102D50002CB1000808B502480068009008BD0000CA
:102D600050B1000810B5024692F82030012B01D076
:102D7000022B06D110684069084314686061002086
:102D800010BD506A40F4802050620120F8E7F0B591
:102D900004460D461E4694F8207020688368A86893
:102DA00000B900E000BF012F01D0022F7CD103F059
:102DB000806030B903F0006018B903F0805000283B
:102DC00073D0C3F30161022905D9606A40F40000A1
:102DD00060620120F0BD012088403060A86860B9C1
:102DE000B5F800C0E86840EA4C5C206800F5C070A7
:102DF00000EB0110C0F800C00FE0D5E901C040EAC7
:102E0000CC00D5F80CC040EA0C00D4F800C00CF59A
:102E1000C07C0CEB011CCCF80000D5F810C0206879
:102E200000F5C07000EB0110C0F804C0287D012837
:102E30000ED1206800F5C07000EB0110406840F42E
:102E4000807C206800F5C07000EB0110C0F804C061
:102E5000D079000692F806C040EA0C4092F805C00E
:102E600040EA0C2C10794CEA000C206800F5C07088
:102E700000EB0110C0F80CC0D078000692F802C038
:102E800040EA0C4092F801C040EA0C2092F800C0E1
:102E900040EA0C00D4F800C00CF5C07C0CEB011C1F
:102EA000CCF80800206801E016E00FE000F5C070E3
:102EB00000EB0110006840F0010C206800F5C070C4
:102EC00000EB0110C0F800C0002083E7606A40F406
:102ED0000010606201207DE7606A40F4802060623B
:102EE000012077E7F0B504460A46216894F820509F
:102EF000012D01D0022D7ED1424901F500710868F3
:102F000040F001000860086820F47C500860086800
:102F1000566A40EA06200860107D00F01F06012076
:102F200000FA06F3C8699843C861A1F50071D06939
:102F3000C8B9D1F80C029843C1F80C02908880B24D
:102F4000968940EA064601F51070576940F83760E7
:102F5000108880B2168940EA064601F5107057695C
:102F600000EBC7004660D069012819D1D1F80C02E6
:102F70001843C1F80C02908880B2168840EA0646D1
:102F800001F51070576940F83760908980B2168952
:102F900040EA064601F51070576900EBC70046602D
:102FA000906928B9D1F804029843C1F8040204E0FA
:102FB000D1F804021843C1F80402106928B9D1F805
:102FC00014029843C1F8140204E0D1F81402184323
:102FD000C1F81402106A012804D1D1F81C02184368
:102FE000C1F81C02D1F8000220F00100C1F8000273
:102FF0000020F0BDFFE7606A40F48020606201209D
:10300000F7E7000000640040014691F82000012825
:1030100001D002280CD10A68526802F002020AB1FB
:10302000042005E00A68126802F0020202B10320DF
:10303000704770B504460CB9012070BD94F82000AB
:1030400010B9204600F0B0F82068006840F0010098
:103050002168086000F094FF05460DE000F090FF45
:10306000401B0A2808D9606A40F4003060620520DD
:1030700084F820000120E0E72068406800F00100AB
:103080000028EBD02068006820F00200216808606A
:1030900000F076FF05460DE000F072FF401B0A28A5
:1030A00008D9606A40F400306062052084F820008E
:1030B0000120C2E72068406800F002000028EBD140
:1030C000207E012806D12068006840F08000216839
:1030D000086005E02068006820F080002168086032
:1030E000607E012806D12068006840F04000216819
:1030F000086005E02068006820F040002168086052
:10310000A07E012806D12068006840F020002168D8
:10311000086005E02068006820F020002168086051
:10312000E07E012806D12068006820F010002168A8
:10313000086005E02068006840F010002168086021
:10314000207F012806D12068006840F0080021682F
:10315000086005E02068006820F008002168086029
:10316000607F012806D12068006840F004002168D3
:10317000086005E02068006820F00400216808600D
:10318000D4E9020108432169084361690843616881
:10319000491E08432168C86100206062012084F84C
:1031A0002000002049E7000010B586B00446142135
:1031B00001A8FDF71DFA4749206888423AD14648E0
:1031C0000068401C444908600846006801280FD187
:1031D00000BF002000904148006840F000703F4967
:1031E00008600846006800F00070009000BF00BF53
:1031F00000BF0020009039481038006840F00100FE
:103200003649103908600846006800F00100009057
:1032100000BF00BF4FF4C050019002200290002078
:103220000390032004900920059001A92C4800F088
:10323000A9FD4CE02B492068884248D100BF0020FE
:1032400000902648006840F08060244908600846E5
:10325000006800F08060009000BF00BF1E4800685A
:10326000401C1D4908600846006801280FD100BFB6
:10327000002000901948006840F00070174908606D
:103280000846006800F00070009000BF00BF00BF5B
:103290000020009011481038006840F002000F49EB
:1032A000103908600846006800F00200009000BF76
:1032B00000BF6020019002200290002003900320B4
:1032C00004900920059001A9074800F05BFD06B0B5
:1032D00010BD000000640040188700204038024004
:1032E00000000240006800400004024070B504463F
:1032F00094F82000012822D1022084F820002068C0
:10330000006820F001002168086000F039FE0546E1
:103310000DE000F035FE401B0A2808D9606A40F431
:1033200000306062052084F82000012070BD206814
:10333000406800F001000028EBD16062F6E7606AA7
:1033400040F4002060620120F0E70000F8B5044678
:10335000002000908C4800684FF41651B0FBF1F744
:10336000A56D2E6894F85C1008208840304098B114
:103370002068006800F0040070B12068006820F048
:1033800004002168086094F85C1008208840A86058
:10339000606D40F00100606594F85C100120884089
:1033A000304068B12068406900F0800040B194F876
:1033B0005C1001208840A860606D40F002006065EC
:1033C00094F85C1004208840304068B120680068A0
:1033D00000F0020040B194F85C1004208840A8601E
:1033E000606D40F00400606594F85C101020884027
:1033F000304078B32068006800F0080050B394F8BB
:103400005C1010208840A8602068006800F48020CC
:1034100080B12068006800F4002028B9206CC8B191
:103420002046216C884715E0A06C98B12046A16C1D
:1034300088470FE02068006800F4807028B9206891
:10344000006820F0080021680860206C10B1204658
:10345000216C884794F85C10202088403040002878
:1034600065D02068006800F0100000285FD094F854
:103470005C1020208840A86094F83500052828D1E9
:103480002068006820F01600216808602068406904
:1034900020F0800021684861206C08B9A06C28B138
:1034A0002068006820F008002168086094F85C102B
:1034B0003F208840A860012084F8350000BF00202C
:1034C00084F8340000BF206D10B12046216D88477C
:1034D000F8BD2068006800F4802080B12068006892
:1034E00000F4002028B9606C10B12046616C884758
:1034F0001DE0E06BD8B12046E16B884717E02068FB
:10350000006800F4807068B92068006820F010003E
:1035100021680860012084F8350000BF002084F88D
:10352000340000BFE06B10B12046E16B8847606D4E
:1035300038B3606D00F00100F0B1052084F835006B
:103540002068006820F001002168086000BF009832
:10355000401C0090B84200D905E02068006800F0E7
:1035600001000028F3D100BF012084F8350000BF1E
:10357000002084F8340000BFE06C10B12046E16CFC
:10358000884700BFA4E70000148700202DE9F04120
:103590000446002500F0F4FC074614B90120BDE8FC
:1035A000F081606A00B100BF022084F8350000BFDE
:1035B000002084F8340000BF2068006820F001007B
:1035C000216808600AE000F0DBFCC01B052805D973
:1035D00020206065032084F83500E0E7206800685B
:1035E00000F001000028EED1206805682148054060
:1035F000D4E901010843E16808432169084361698E
:103600000843A1690843E1690843216A0843054367
:10361000606A042803D1D4E90B01084305432068FC
:1036200005602068456925F00705606A0543606A02
:1036300004280DD1A06A0543E06A48B12046FFF78F
:1036400001F928B140206065012084F83500A6E723
:10365000206845612046FFF7DBF8064694F85C10C9
:103660003F208840B06000206065012084F835006C
:10367000002094E73F8010F070B5044600F080FC15
:1036800006462546681C10B104480078054400BF72
:1036900000F076FC801BA842FAD370BD1087002092
:1036A0002DE9FC4104460025002001909D4E002795
:1036B000804614B90120BDE8FC8194F8440028B983
:1036C000002084F84500204600F06EF900BF00207D
:1036D00000909548006840F480409349086008468F
:1036E000006800F48040009000BF00BF8F48006871
:1036F00020F400008D49086008460068216A0843EC
:103700008A490860206800F58050006840F0010197
:10371000206800F58050016000F032FC07460FE0A1
:1037200000F02EFCC01BB0F5FA7F09D9032084F805
:10373000440000BF002084F8450000BF0320BAE722
:10374000206800F58050006800F001000028E7D1F3
:103750002068056925F01C0500F038FF064674480E
:10376000864205D37348864202D245F008051AE026
:103770007048864205D36B48864202D245F00C055C
:1037800011E06848864203D36B48864200D20AE0C3
:103790006948864205D36948864202D245F004054D
:1037A00001E045F01005206805614FF4004200215A
:1037B000204600F0ECF948B14FF0010841462046A0
:1037C000FFF7DCF8012084F8440074E7FF20FFF7DE
:1037D00053FF6068002871D000F0D2FB074600BF9D
:1037E00001AA0121204600F089F900F0C9FBC01BA5
:1037F00041F2883188420FD94FF0010841462046F6
:10380000FFF7BCF8012084F8440000BF002084F8D2
:10381000450000BF03204EE7019800F00400042893
:10382000DED182020021204600F0B1F948B14FF00C
:10383000010841462046FFF7A1F8012084F8440022
:1038400039E700F09DFB074600BF01AA0121204691
:1038500000F054F900F094FBC01B41F2883188421B
:103860000FD94FF0010841462046FFF787F80120A5
:1038700084F8440000BF002084F8450000BF032006
:1038800019E7019800F020002028DED101AA1021BC
:10389000204600F033F948B14FF001084146204678
:1038A000FFF76CF8012084F8440004E7019800F069
:1038B000040020B14FF40061E16002E00DE000215E
:1038C000E160019800F00200022802D10021A1600D
:1038D0001EE04FF48041A1601AE0E068C0F3CF0021
:1038E000A168C1F34F0140EA01020021204600F027
:1038F0004EF948B14FF0010841462046FFF73EF827
:10390000012084F84400D6E640F6FF70FFF7B4FECD
:1039100041462046FFF732F8012084F84400002099
:10392000C9E6000000879303443802400438014090
:10393000002D3101C00E160200E1F50580D1F0081E
:1039400010B5044613492068884221D100BF1248AF
:10395000006820F08060104908600846006820F088
:10396000006008600846006820F00070086000BF32
:1039700032210A4800F054F98621094800F050F934
:103980004FF46051074800F04BF93D2000F0BEFCB9
:1039900010BD0000008002403038024000080240A4
:1039A000000002400004024010B586B00446142115
:1039B00001A8FCF71DFE4C49206888427ED100BF5B
:1039C00000BF002000904948006840F0007047495F
:1039D00008600846006800F00070009000BF00BF5B
:1039E00000BF002000900846006840F0806008603A
:1039F0000846006800F08060009000BF00BF00BF74
:103A0000002000900846006840F00060086008460A
:103A1000006800F00060009000BF00BF00BF00BF62
:103A2000002000900846006840F004000860084646
:103A3000006800F00400009000BF00BF00BF00203D
:103A400000900846006840F00100086008460068E1
:103A500000F00100009000BF00BF00BF00200090F8
:103A60000846006840F0020008600846006800F060
:103A70000200009000BF00BF32200190022002909F
:103A800000200390032004900B20059001A9184802
:103A900000F078F986200190022002900020039027
:103AA000032004900B20059001A9124800F06AF948
:103AB0004FF4605001900220029000E011E00020DD
:103AC0000390032004900B20059001A90A4800F000
:103AD00059F9002211463D2000F042FC3D2000F043
:103AE0002BFC06B010BD00000080024030380240C0
:103AF0000008024000000240000402402DE9F041AD
:103B000004460E4617460025A84694F8440082282D
:103B100002D10220BDE8F081822084F844002068B0
:103B2000056905F01C05208A4FF4784101EAC020A0
:103B30000543481100EA8610054325F0020545F0CB
:103B400001052068056100F01BFA804612E000F0D4
:103B500017FAA0EB0800B0F5803F09D3012084F8E4
:103B6000440000BF002084F8450000BF0320D1E7D7
:103B70002068056905F001000028E8D12068406947
:103B800080B23860012084F844000020C2E72DE9AB
:103B9000F04104460E4617460025A84694F8440016
:103BA000422802D10220BDE8F081422084F844007E
:103BB0002068056905F01C05208A4FF4784101EA68
:103BC000C0200543481100EA8610054345F0020570
:103BD00045F00105B8B2216848612068056100F030
:103BE000CFF9804612E000F0CBF9A0EB0800B0F569
:103BF000803F09D3012084F8440000BF002084F8EE
:103C0000450000BF0320CEE72068056905F00100EC
:103C10000028E8D1012084F844000020C3E7000018
:103C2000F0B50C46002500220023002192E0012679
:103C300006FA01F504EA0502AA427DD1474E8F0833
:103C400056F827308E07370F0F26BE403340444EBC
:103C5000B04201D1002623E0424EB04201D10126FC
:103C60001EE0414EB04201D1022619E03F4EB04263
:103C700001D1032614E03E4EB04201D104260FE0EC
:103C80003C4EB04201D105260AE03B4EB04201D184
:103C9000062605E0394EB04201D1072600E008268D
:103CA0008F073F0FBE409E4222D1354E3668964365
:103CB000334F3E603E1D366896433F1D3E603E1DBD
:103CC000366896433F1D3E603E1D366896433F1D55
:103CD0003E608E07370F0F2606FA07F31F4E8F0838
:103CE00056F827609E431D4F4FEA910C47F82C6011
:103CF00006684FEA410C032707FA0CF7BE4306603B
:103D0000CF0800F1200656F827604F074FEAD76C1E
:103D10000F2707FA0CF7BE434FEAD10C00F120073A
:103D200047F82C60C6684FEA410C032707FA0CF7E6
:103D3000BE43C660466800E00BE001278F40BE43EB
:103D4000466086684FEA410C032707FA0CF7BE432A
:103D50008660491C1029FFF46AAFF0BD08380140A5
:103D6000000002400004024000080240000C024033
:103D7000001002400014024000180240001C0240E3
:103D8000003C0140F8B502460B4600250024002007
:103D90000021D5E0012606FA01F51E6806EA0504B1
:103DA000AC4274D11E7906F00306012E04D01E79B0
:103DB00006F00306022E13D190684F000326BE4082
:103DC000B0434F00DE68BE4030439060506801262B
:103DD0008E40B0431E79C6F300168E4030435060CB
:103DE0001E7906F00306032E09D0D0684F00032683
:103DF000BE40B0434F009E68BE403043D0601E7945
:103E000006F00306022E13D1CF0802F1200656F861
:103E100027004E07F70E0F26BE40B0434F07FF0E98
:103E20001E69BE403043CF0802F1200646F8270045
:103E300010684F000326BE40B0431E7906F003060B
:103E40004F00BE40304310605E6806F44036002EDE
:103E500075D000BF002600963B4E366846F480467B
:103E6000394F3E603E46366806F48046009600BFF5
:103E700000BF364E8F0856F827008E07370F0F26E3
:103E8000BE40B043324EB24202D1002624E056E09A
:103E9000304EB24201D101261EE02F4EB24201D176
:103EA000022619E02D4EB24201D1032614E02C4E19
:103EB000B24201D104260FE02A4EB24201D10526BA
:103EC0000AE0294EB24201D1062605E0274EB24251
:103ED00001D1072600E008268F073F0FBE40304380
:103EE0001A4E8F0846F82700214E3068A0435E68BE
:103EF00006F4803606B120431D4E3060361D306812
:103F0000A0435E6806F4003606B12043184E361D05
:103F10003060361D3068A0435E6806F4801606B136
:103F20002043134E08363060361D3068A0435E686B
:103F300006F4001606B120430D4E0C363060491CC5
:103F40001029FFF427AFF8BD44380240083801407B
:103F5000000002400004024000080240000C024041
:103F6000001002400014024000180240001C0240F1
:103F7000003C01400AB1816101E00B04836170479C
:103F800001480068704700000887002070B50446AB
:103F90000CB9012070BD94F83D0028B9002084F8C8
:103FA0003C00204600F0DAF8242084F83D00206828
:103FB000006820F00100216808602068006840F473
:103FC0000040216808602068006820F400402168F3
:103FD000086000F001FB05465C496068884206D82D
:103FE0005B48854201D2012007E0002005E05948E6
:103FF000854201D2012000E00020012800D1C9E75C
:104000005548B5FBF0F62068406820F03F0030438B
:10401000216848604D496068884201D8701C07E0FB
:104020004FF4967070434FF47A71B0FBF1F0401C7E
:104030002168096A21F03F01084321680862434969
:104040006068884214D8681E61684900B0FBF1F0CE
:10405000401CC0F30B00042801D204203DE0681E80
:1040600061684900B0FBF1F0401CC0F30B0034E084
:10407000A06838B9681E616801EB4101B0FBF1F03E
:10408000401C0AE0681E616801EBC10202EB0111ED
:10409000B0FBF1F0401C40F48040C0F30B0008B9C5
:1040A00001201AE0A06848B9681E616801EB41016F
:1040B000B0FBF1F0401CC0F30B000CE0681E61681F
:1040C00001EBC10202EB0111B0FBF1F0401CC0F3A7
:1040D0000B0040F4804040F400402168C9694CF670
:1040E000FF72914308432168C861D4E9070108437E
:1040F0002168096821F0C001084321680860D4E9FB
:10410000031008432168896848F2FF32914308434D
:1041100021688860D4E9050108432168C96821F055
:10412000FF0108432168C8602068006840F0010072
:104130002168086000202064202084F83D000020D1
:10414000206384F83E0000BF24E70000A086010041
:1041500080841E0000093D0040420F0010B586B06B
:104160000446142101A8FCF743FA1B492068884241
:1041700030D100BF002000901848006840F00200D5
:10418000164908600846006800F00200009000BF71
:1041900000BF4FF4C07001901220029000200390E5
:1041A000032004900420059001A90D48FFF7EAFDC3
:1041B00000BF0020009009481030006840F4001053
:1041C0000649103108600846006800F400100090AD
:1041D00000BF00BF06B010BD0054004030380240A0
:1041E0000004024003480068034909780844014973
:1041F00008607047088700201087002010B50D4820
:10420000006840F400700B4908600846006840F4FC
:10421000806008600846006840F4807008600320F1
:1042200000F0DCF80F2000F007F800F04BF8002059
:1042300010BD0000003C024070B588B00446002567
:104240000026002221462D2000F08AF82D2000F0C3
:1042500073F800BF002001901648006840F4807099
:10426000144908600846006800F48070019000BF9F
:1042700000BF02A903A800F087F900F0ADF94500DE
:104280000D48B5FBF0F0461E0C480D49086040F2A1
:10429000E7310B48C160466000210161816000F098
:1042A000CDFE20B9064800F0FDFE08B070BD01202B
:1042B000FBE700004038024040420F000020004071
:1042C000C4AF002008B500BF002000900E48006871
:1042D00040F480400C4908600846006800F48040C3
:1042E000009000BF00BF00BF00200090081F0068C2
:1042F00040F08050091F08600846006800F08050B8
:10430000009000BF00BF08BD4438024010B5014610
:10431000084600280BDB00F01F0301229A40054BE2
:10432000440943F82420BFF34F8FBFF36F8F00BFC2
:1043300010BD000080E100E00146084600280DDBCA
:1043400000BF00BF00F01F0301229A4043099B00F9
:1043500003F1E023C3F8002100BF00BF00BF704796
:104360002DE9F05F80460D461646002703F0E4FA7B
:10437000074639462A46334601F00700C0F1070ACE
:10438000BAF1040F02D94FF0040A01E0C0F1070AA4
:10439000D14600F1040ABAF1070F02D24FF0000A29
:1043A00001E0A0F1030AD4464FF0010A0AFA09FA23
:1043B000AAF1010A0AEA020A0AFA0CFA4FF0010B02
:1043C0000BFA0CFBABF1010B0BEA030B4AEA0B04F3
:1043D0002146404603F0B8FABDE8F09F00BF00F068
:1043E0000702064B19684FF6FF031940044B0B43B5
:1043F00043EA0221014B196000BF70470CED00E059
:104400000000FA0570B504460D460CB9012070BDD8
:104410005848006800F00700A84209D255490D70BD
:104420000846006800F00700A84201D00120EEE72E
:10443000207800F0020002281DD1207800F004004E
:10444000042805D14C48006840F4E0504A4908600F
:10445000207800F00800082805D14748006840F49B
:104460006040454908604448006820F0F000A168B9
:10447000084341490860207800F00100A8B3606853
:10448000012807D13C4808380068C0F34040B8B95B
:104490000120BCE76068022802D06068032807D1C9
:1044A000354808380068C0F3406048B90120AEE7DD
:1044B000314808380068C0F3400008B90120A6E779
:1044C0002D48006820F00300616808432A4908600D
:1044D000FFF756FD064609E0FFF752FD801B41F24B
:1044E0008831884202D9032091E707E0224800681A
:1044F00000F00C006168B0EB810FEDD11D48006841
:1045000000F00700A84209D91A490D700846006852
:1045100000F00700A84201D0012078E7207800F0E1
:104520000400042807D11448006820F4E050E16832
:10453000084311490860207800F00800082808D1D5
:104540000D48006820F46040216940EAC1000A4932
:10455000086000F051F808490968C1F30311074ADF
:10456000515CC8400649086006480068FFF764FED1
:1045700000204CE7003C024008380240BCB1000873
:10458000148700200C8700200F2202600D4A126859
:1045900002F0030242600B4A126802F0F0028260ED
:1045A000084A126802F4E052C260064A126802F435
:1045B0006042D2080261044A126802F007020A60EF
:1045C0007047000008380240003C02400148006883
:1045D000704700001487002000B5FFF7F7FF04497B
:1045E0000968C1F38221034A515CC84000BD000044
:1045F00008380240CCB100082DE9F047002400251E
:104600000026A1462548006800F00C0020B10428CF
:1046100005D008283AD105E0DFF8849039E0DFF8CA
:10462000849036E01D48001F006800F03F041B48DE
:10463000001F006800F4800078B11A481749091F6C
:104640000968C1F38811A0FB0170014622460023CE
:104650003846FBF791FE05460EE011480F49091F49
:104660000968C1F38811A0FB0170014622460023AE
:104670003846FBF781FE05460848001F0068C0F376
:104680000140401C4600B5FBF6F902E0DFF810904F
:1046900000BF00BF4846BDE8F08700000838024070
:1046A0000024F40040787D01F8B504460CB90120DF
:1046B000F8BD207800F00100002874D0F9480068A7
:1046C00000F00C0004280DD0F648006800F00C0043
:1046D000082813D1F348001F006800F48000B0F5EB
:1046E000800F0BD1EF4808380068C0F34040002825
:1046F00059D06068002856D10120D9E700BF606812
:10470000B0F5803F08D1E7480838006840F48030B1
:10471000E449083908601EE06068B0F5A02F0DD1AB
:10472000E0480838006840F48020DE490839086015
:104730000846006840F4803008600CE0D94808382A
:10474000006820F48030D7490839086008460068BE
:1047500020F48020086000BF606890B1FFF710FC73
:10476000054606E0FFF70CFC401B642801D9032036
:104770009EE7CC4808380068C0F340400028F1D0DC
:1047800011E0FFF7FDFB054606E0FFF7F9FB401BD4
:10479000642801D903208BE7C24808380068C0F3B9
:1047A00040400028F1D1207800F0020002285FD1BB
:1047B000BC48006800F00C0058B1BA48006800F02E
:1047C0000C0008281CD1B748001F006800F48000C6
:1047D000B0B9B44808380068C0F3400020B1E068C0
:1047E000012801D0012063E7AE480838006820F0B6
:1047F000F800216940EAC100AA490839086037E099
:10480000E06800B30120A8490860FFF7B9FB05463E
:1048100006E0FFF7B5FB401B022801D9032047E75C
:10482000A04808380068C0F340000028F1D09D4837
:104830000838006820F0F800216940EAC100994971
:104840000839086014E0002097490860FFF798FBDA
:10485000054606E0FFF794FB401B022801D9032020
:1048600026E7904808380068C0F340000028F1D1DE
:10487000207800F0080008282CD16069A8B1012038
:104880008A490860FFF77CFB054606E0FFF778FBE6
:10489000401B022801D903200AE782486C300068D7
:1048A000C0F340000028F1D014E000207F490860E8
:1048B000FFF766FB054606E0FFF762FB401B022898
:1048C00001D90320F4E677486C300068C0F340005B
:1048D0000028F1D1207800F00400042870D10027CE
:1048E00070483830006800F0805090B900BF002058
:1048F00000906C483830006840F080506949383189
:1049000008600846006800F08050009000BF00BFBB
:1049100001276748006800F48070B0B964480068F7
:1049200040F4807062490860FFF72AFB054606E004
:10493000FFF726FB401B022801D90320B8E65C489C
:10494000006800F480700028F2D000BFA068012841
:1049500008D154486830006840F00100514968317E
:1049600008601DE0A06805280DD14E486830006839
:1049700040F004004B49683108600846006840F088
:10498000010008600CE047486830006820F0010032
:104990004449683108600846006820F00400086057
:1049A00000BFA068A8B1FFF7EBFA054609E0FFF7E2
:1049B000E7FA401B41F28831884202D9032077E6AA
:1049C00026E0384868300068C0F340000028EED088
:1049D00013E0FFF7D5FA054608E0FFF7D1FA401BD0
:1049E00041F28831884201D9032061E62D486830C0
:1049F0000068C0F340000028EFD1012F07D12948FB
:104A00003830006820F0805026493831086000BFF7
:104A1000A069002845D02348006800F00C00082851
:104A20005DD0A069022845D100201F490866FFF724
:104A3000A7FA054606E0FFF7A3FA401B022801D9B2
:104A4000032035E6174808380068C0F340600028A6
:104A5000F1D1D4E907010843616A40EA81110122DA
:104A6000A06AC2EB500041EA00412C20005D41EAFF
:104A700000600C49091F086001200B490866FFF718
:104A80007FFA054606E0FFF77BFA401B022801D9B2
:104A900003200DE6034808380068C0F34060002892
:104AA000F1D049E00838024000004742800E4742FA
:104AB00000700040002021490866FFF761FA0546B2
:104AC00006E0FFF75DFA401B022801D90320EFE55D
:104AD0001B480068C0F340600028F2D12CE0A069B8
:104AE000012800D1E4E51648001D0668A0690128E8
:104AF00020D006F48001E06981421BD106F03F011D
:104B0000206A814216D147F6C0703040616AB0EB2E
:104B1000811F0FD106F440310122A06AC2EB500080
:104B2000B1EB004F06D106F070612C20005DB1EBB7
:104B3000006F01D00120BBE50020B9E5000047422D
:104B400000380240F0B589B004460E460027032025
:104B500084F83400606C032820D0B6F5805F04D15F
:104B6000A06B40F08050A0631CE0B6F5006F07D149
:104B7000204602F091FA0546A06B2843A06311E09D
:104B80003EB9204602F054FA0546A06B2843A063C4
:104B900008E0A06B40F00060A06303E0A06B40F071
:104BA0008050A063A06B38B117482168886301204A
:104BB00084F83400012713E060680390A068049033
:104BC000E0680590069660690790A069089006A8BD
:104BD00007C88DE80700206803A90EC901F054FD3D
:104BE0004FF40071206801F0C5FD054635B1064857
:104BF00021688863A06B2843A0630127012084F803
:104C00003400384609B0F0BDFF05400010B502463B
:104C1000506E800F0870506EC0F383604870506E05
:104C2000C0F301608870506E000CC870B2F8640068
:104C3000000A087192F864004871906E000DC880F7
:104C4000906EC0F3034008726820805AC0F3C030F1
:104C500048726820805AC0F3803088726820805A79
:104C6000C0F34030C8726820805AC0F30030087327
:104C700000204873506C002836D16820805A800587
:104C8000030DD06E43EA90700861D06EC0F3C2602D
:104C90000875D06EC0F302604875D06EC0F3425004
:104CA0008875D06EC0F38240C875D06EC0F3C23034
:104CB00008760869401C50650B7E506D03F00703B1
:104CC0009B1C01249C4060435065087A00F00F0350
:104CD000012098409065D2E915035B0A5843D065DE
:104CE0004FF40073136621E0506C012813D1682043
:104CF000805C8006830AD06E43EA10400861086930
:104D0000401C83025365536DD3654FF40073936564
:104D1000936D13660AE02E4813689863906B40F019
:104D200080509063012082F8340010BD6C20805ABE
:104D3000C0F3803001F8190F6C20805AC0F3C61000
:104D400048706C20805C00F07F008870106FC00F8E
:104D5000C870106FC0F341700871106FC0F38260AB
:104D60004871106FC0F383508871106FC0F34050CA
:104D7000C87100200872106FC0F3004048727020A4
:104D8000805AC0F3C03088727020805AC0F38030DF
:104D9000C8727020805AC0F3403008737020805A67
:104DA000C0F3003048737020805AC0F381208873AC
:104DB0007020805AC0F30120C8737020805CC0F35B
:104DC000460008740120487419390020ADE700003E
:104DD000FF05400010B504460CB9012010BD94F841
:104DE000340020B900202077204600F067F8032027
:104DF00084F83400204600F00BF808B10120EDE7FC
:104E00000020A0632063012084F834000020E5E73F
:104E100070B58AB004460020049005900690079073
:104E200008907620099007A807C88DE80700206839
:104E300004A90EC901F028FC064616B101200AB0EB
:104E400070BD00201B490860206801F037FC01207C
:104E50001849A039C1F8A000204602F083F80546A1
:104E60003DB1012084F83400A06B2843A0630120E9
:104E7000E5E7204601F0F5FF05463DB1012084F845
:104E80003400A06B2843A0630120D8E74FF40071E1
:104E9000206801F06FFC05464DB107482168886322
:104EA000A06B2843A063012084F83400C7E70020EA
:104EB000C5E70000A0802542FF05400010B586B080
:104EC0000446142101A8FBF793FB5449206888424B
:104ED0007ED100BF002000905148006840F400607F
:104EE0004F4908600846006800F40060009000BF69
:104EF00000BF00BF0020009049481438006840F00F
:104F000004004749143908600846006800F00400AE
:104F1000009000BF00BF00BF00200090084600685E
:104F200040F0080008600846006800F008000090A3
:104F300000BF00BF4FF4F850019002200290002003
:104F40000390032004900C20059001A93548FEF73A
:104F500019FF0420019002200290002003900320FA
:104F600004900C20059001A92F48FEF70BFF2F4855
:104F70002F4908604FF00060486000212C48816094
:104F8000C1604FF4806101618900416189008161E4
:104F90002021C161C90201620421416203218162B1
:104FA0004FF40001C16289100163FEF7EFFA08B106
:104FB000FDF736FE00BF1E482064846300BF1B4817
:104FC00048301C4908604FF000604860402100E014
:104FD00021E0184881600021C1604FF480610161C7
:104FE00089004161890081612021C161C90201629A
:104FF00004214162032181624FF40001C1628910E2
:105000000163FEF7C3FA08B1FDF70AFE00BF0948C5
:10501000E063846300BF06B010BD0000002C0140B7
:105020004438024000080240000C0240586402402C
:105030009C890020FC8900207047704710B5044609
:105040000CB9012010BD94F83D0028B9002084F867
:105050003C00204600F025F8022084F83D00211D88
:10506000206802F045FB012084F8460000BF84F868
:105070003E0001213F2001554020015541200155AE
:1050800000BF00BF012084F84200432001554420A6
:1050900001554520015500BF012084F83D00002046
:1050A000D0E77047014691F83D00012801D001206A
:1050B0007047022081F83D000868C06840F0010098
:1050C0000B68D8601A4B086898421BD00868B0F18A
:1050D000804F17D0174B0868984213D0164B0868BA
:1050E00098420FD0154B086898420BD0144B0868B3
:1050F000984207D0134B0868984203D0124B0868B7
:1051000098420CD10868806800F00702062A0CD08B
:105110000868006840F001000B68186005E0086846
:10512000006840F001000B6818600020C0E7000034
:10513000000001400004004000080040000C004056
:10514000000401400040014000180040704710B5C5
:10515000044620680069C0F34000D8B12068C068E8
:10516000C0F34000B0B16FF0020021680861012077
:1051700020772068806900F0030018B12046FFF70F
:10518000E5FF05E0204600F0ADF8204600F0ABF862
:105190000020207720680069C0F38000D8B1206823
:1051A000C068C0F38000B0B16FF0040021680861EE
:1051B000022020772068806900F4407018B12046F2
:1051C000FFF7C4FF05E0204600F08CF8204600F011
:1051D0008AF80020207720680069C0F3C000D8B1A9
:1051E0002068C068C0F3C000B0B16FF0080021684B
:1051F0000861042020772068C06900F0030018B11E
:105200002046FFF7A3FF05E0204600F06BF820469C
:1052100000F069F80020207720680069C0F30010D2
:10522000D8B12068C068C0F30010B0B16FF01000B2
:1052300021680861082020772068C06900F4407068
:1052400018B12046FFF782FF05E0204600F04AF83B
:10525000204600F048F8002020772068006900F020
:10526000010058B12068C06800F0010030B16FF053
:10527000010021680861204600F036F820680069C6
:10528000C0F3C01058B12068C068C0F3C01030B17E
:105290006FF08000216808612046FFF7CDFE20688E
:1052A0000069C0F3801058B12068C068C0F3801056
:1052B00030B16FF0400021680861204600F020F80E
:1052C00020680069C0F3401058B12068C068C0F37E
:1052D000401030B16FF02000216808612046FFF7D0
:1052E000ACFE10BD7047704710B5044603492068F6
:1052F000884201D1FEF776FF10BD0000002000407B
:10530000704700BFFEE7000010B5002211460548B7
:10531000FCF7A4F904490860192103480068FCF768
:10532000AFF910BDD17900085886002010B50020D3
:10533000FBF714FC1A490860002004E00021194A18
:1053400042F82010401C1C28F8DB02211648FDF70B
:1053500009FD044610211448FDF704FD04461248D7
:10536000FDF7C4FF0446002224212020FBF780FB28
:105370000E490860002210212020FBF779FB0C4920
:105380000860002211460B48FCF768F90A490860DA
:10539000002211460948FCF761F90949086010BD6F
:1053A0009C8600205C8A00202C880020A486002097
:1053B000A8860020AD24000894860020F12500086E
:1053C0009886002010B54E4A6FF0070140F2464023
:1053D000FDF78EF84B4A6FF0070140F2A440FDF74D
:1053E00087F8484A6FF0070140F2A340FDF780F8C4
:1053F000444A6FF0070140F2A240FDF779F8414AB4
:105400006FF0070140F2A140FDF772F83D4A6FF0DE
:10541000070140F2B140FDF76BF83A4A6FF007011F
:1054200040F2B240FDF764F8364A6FF0070140F2EF
:10543000B340FDF75DF8334A6FF0070140F2B44026
:10544000FDF756F82F4A6FF0070140F2C140FDF713
:105450004FF82C4A6FF0070140F2C240FDF748F8C0
:10546000284A6FF0070140F2C340FDF741F8254A92
:105470006FF0070140F2C440FDF73AF8214A6FF09F
:10548000070140F21640FDF733F81E4A6FF007019E
:1054900040F22640FDF72CF81A4A6FF007014FF44E
:1054A000C870FDF725F8174A6FF007014FF4217017
:1054B000FDF71EF8144A6FF007014FF48260FDF704
:1054C00017F8114A6FF007014FF48460FDF710F8E8
:1054D0000E4A6FF0070140F28270FDF709F80B4A9F
:1054E0006FF0070140F28670FDF702F8074A6FF08F
:1054F00007014FF4F160FCF7FBFFFFF717FF10BD4A
:10550000C12B000845780008DD2B00084124000865
:1055100010B5002210210846FBF7AAFA08490860D6
:10552000002211460748FCF799F807490860002354
:105530001A4601210548FCF7D9F80549086010BD55
:1055400040860020C977000844860020D9770008EB
:1055500048860020024602B111B96FF0040070477E
:105560000748807A00F0010038B9054802604160C0
:105570000020034B1881012098720020EFE7000003
:10558000CC8A002001460D48006840F480400B4A58
:1055900010600B48006840F40000094A1060094898
:1055A000094A10600948002202604260826001607E
:1055B0000120064A10710020704700004438024064
:1055C00004380140008002407C880020D88A0020F6
:1055D000F0B502460B4600240021186890FAA0F0AE
:1055E000B0FA80F48AE00125A540186800EA0501B8
:1055F00000297DD05868012802D0586802281CD1A3
:105600009868956891FAA1F6B6FA86F677000326AF
:10561000BE40B54391FAA1F6B6FA86F6760000FAD6
:1056200006F63543956000BFD86855688D4301FB89
:1056300000F63543556000BF00BF1869D56891FA80
:10564000A1F6B6FA86F677000326BE40B54391FA76
:10565000A1F6B6FA86F6760000FA06F63543D5606E
:1056600000BF5868022831D191FAA1F0B0FA80F059
:10567000082814D25869156A91FAA1F6B6FA86F686
:10568000B7000F26BE40B54391FAA1F6B6FA86F6EA
:10569000B60000FA06F63543156200BF16E05869F9
:1056A000556A0E0A96FAA6F6B6FA86F6B7000F26DF
:1056B000BE40B5430E0A96FAA6F6B6FA86F6B600CE
:1056C00000FA06F63543556200BF00BF58681568FA
:1056D00091FAA1F6B6FA86F677000326BE40B543E6
:1056E00091FAA1F6B6FA86F6760000FA06F600E020
:1056F00003E03543156000BF00BF641C1868E0403C
:1057000000287FF470AFF0BD10B5044600F0A6FD90
:105710002060206800F06EFD6060606800F07AFD37
:10572000A060606800F088FDE06010BD024800687D
:10573000C0F3881070470000043802402DE9FF4193
:1057400004460D4601270026204600F059F800289F
:1057500045D1E9686868084329690843A96908438D
:10576000E16849F20C6291430843E060A86821694E
:1057700021F440510143216100BF6869616921F44E
:1057800040710143616100BF6846FFF7BDFF1648E5
:10579000844201D1039E17E01448844201D1029E45
:1057A00012E01348844201D1029E0DE01148844268
:1057B00001D1039E08E01048844201D1029E03E01B
:1057C0000E48844200D1029E4EB1286838B10027AD
:1057D000314620462B68AA6900F017F800BF38460A
:1057E00004B0BDE8F081000000100140004400401A
:1057F0000048004000140140004C004000500040B0
:105800000146C868C0F3403070472DE9FC5F06468A
:105810000C4691461D46B9F5004F68D10220A0FB09
:10582000057003461920A4FB00A001463A465046E5
:10583000FAF7A2FD6421B0FBF1F04FEA001A022052
:10584000A0FB05710B461920A4FB00B13A4658464F
:10585000FAF792FD83460220A0FB0570034619204B
:10586000A4FB00013A46CDE90001FAF785FD642169
:10587000B0FBF1F000EBC00101EB0010ABEB8000DE
:10588000322101EBC0006421B0FBF1F000F0F80020
:105890000AEB400A0220A0FB057003461920A4FB76
:1058A00000B13A465846FAF767FD83460220A0FB4E
:1058B000057003461920A4FB00013A46CDE900011A
:1058C000FAF75AFD6421B0FBF1F000EBC00101EBE7
:1058D0000010ABEB8000322101EBC0006421B0FB73
:1058E000F1F000F00700504480B2B06067E004209F
:1058F000A0FB057003461920A4FB00A001463A4610
:105900005046FAF739FD82460420A0FB05711920A4
:10591000A4FB00B084463A460B4658466146FAF767
:105920002BFD6421B0FBF1F000EBC00101EB001096
:10593000AAEB8000322101EB00106421B0FBF1F0F2
:1059400000F0F00A0420A0FB057003461920A4FB18
:1059500000B001463A465846FAF70EFD6421B0FB06
:10596000F1F00AEB001A0420A0FB05700346192091
:10597000A4FB00B13A465846FAF7FEFC83460420E1
:10598000A0FB057003461920A4FB00013A46CDE9AF
:105990000001FAF7F1FC6421B0FBF1F000EBC0016B
:1059A00001EB0010ABEB8000322101EB0010642111
:1059B000B0FBF1F000F00F00504480B2B060BDE8E1
:1059C000FC9F000010B50D480D4908600520486097
:1059D00000210B488160C1604FF400210161C900C2
:1059E00041610021017641768176C1760177417768
:1059F000FDF71FFB08B1FDF713F910BD006400406F
:105A00002C88002010B50D480D490860052048601D
:105A100000210B488160C1604FF400210161C90081
:105A200041610021017641768176C1760177417727
:105A3000FDF7FFFA08B1FDF7F3F810BD006800406C
:105A40005488002008B500BF002000900E48006870
:105A500040F480000C4908600846006800F48000AB
:105A6000009000BF00BF002211463B20FEF778FCEB
:105A70003B20FEF761FC002211464520FEF770FC3A
:105A80004520FEF759FC08BD3038024010B51948D2
:105A90001949086000201949087080204870E120E9
:105AA00088700020C8700871487113484161012155
:105AB00001620020104948604FF480410E48816027
:105AC000C910C1600121018281610021C1614FF4CF
:105AD00000010162FDF7E4FD08B1FDF7A1F80848F7
